{
  "contractName": "ContratDeVote",
  "abi": [
    {
      "inputs": [
        {
          "internalType": "uint256",
          "name": "_votesRequis",
          "type": "uint256"
        },
        {
          "internalType": "address",
          "name": "_adresseMonnaie",
          "type": "address"
        }
      ],
      "stateMutability": "nonpayable",
      "type": "constructor"
    },
    {
      "inputs": [],
      "name": "administrateur",
      "outputs": [
        {
          "internalType": "address",
          "name": "",
          "type": "address"
        }
      ],
      "stateMutability": "view",
      "type": "function",
      "constant": true
    },
    {
      "inputs": [],
      "name": "adresseMonnaie",
      "outputs": [
        {
          "internalType": "address",
          "name": "",
          "type": "address"
        }
      ],
      "stateMutability": "view",
      "type": "function",
      "constant": true
    },
    {
      "inputs": [],
      "name": "projetReussi",
      "outputs": [
        {
          "internalType": "bool",
          "name": "",
          "type": "bool"
        }
      ],
      "stateMutability": "view",
      "type": "function",
      "constant": true
    },
    {
      "inputs": [],
      "name": "totalVotes",
      "outputs": [
        {
          "internalType": "uint256",
          "name": "",
          "type": "uint256"
        }
      ],
      "stateMutability": "view",
      "type": "function",
      "constant": true
    },
    {
      "inputs": [
        {
          "internalType": "address",
          "name": "",
          "type": "address"
        }
      ],
      "name": "votes",
      "outputs": [
        {
          "internalType": "uint256",
          "name": "",
          "type": "uint256"
        }
      ],
      "stateMutability": "view",
      "type": "function",
      "constant": true
    },
    {
      "inputs": [],
      "name": "votesRequis",
      "outputs": [
        {
          "internalType": "uint256",
          "name": "",
          "type": "uint256"
        }
      ],
      "stateMutability": "view",
      "type": "function",
      "constant": true
    },
    {
      "inputs": [
        {
          "internalType": "uint256",
          "name": "montant",
          "type": "uint256"
        }
      ],
      "name": "voter",
      "outputs": [],
      "stateMutability": "nonpayable",
      "type": "function"
    },
    {
      "inputs": [],
      "name": "remboursement",
      "outputs": [],
      "stateMutability": "nonpayable",
      "type": "function"
    }
  ],
  "bytecode": "0x608060405234801561000f575f80fd5b50604051610b4f380380610b4f83398181016040528101906100319190610168565b335f806101000a81548173ffffffffffffffffffffffffffffffffffffffff021916908373ffffffffffffffffffffffffffffffffffffffff160217905550816002819055508060035f6101000a81548173ffffffffffffffffffffffffffffffffffffffff021916908373ffffffffffffffffffffffffffffffffffffffff1602179055505f60055f6101000a81548160ff02191690831515021790555050506101a6565b5f80fd5b5f819050919050565b6100ed816100db565b81146100f7575f80fd5b50565b5f81519050610108816100e4565b92915050565b5f73ffffffffffffffffffffffffffffffffffffffff82169050919050565b5f6101378261010e565b9050919050565b6101478161012d565b8114610151575f80fd5b50565b5f815190506101628161013e565b92915050565b5f806040838503121561017e5761017d6100d7565b5b5f61018b858286016100fa565b925050602061019c85828601610154565b9150509250929050565b61099c806101b35f395ff3fe608060405234801561000f575f80fd5b5060043610610086575f3560e01c8063d64cb35211610059578063d64cb35214610100578063d69099301461011e578063d8bff5a514610128578063fbda846a1461015857610086565b80630d15fd771461008a5780631b2655c9146100a8578063a0ce7b41146100c6578063ab8ed1ba146100e4575b5f80fd5b610092610176565b60405161009f919061056f565b60405180910390f35b6100b061017c565b6040516100bd91906105a2565b60405180910390f35b6100ce61018e565b6040516100db91906105fa565b60405180910390f35b6100fe60048036038101906100f99190610641565b6101b1565b005b610108610326565b604051610115919061056f565b60405180910390f35b61012661032c565b005b610142600480360381019061013d9190610696565b61051d565b60405161014f919061056f565b60405180910390f35b610160610532565b60405161016d91906105fa565b60405180910390f35b60015481565b60055f9054906101000a900460ff1681565b5f8054906101000a900473ffffffffffffffffffffffffffffffffffffffff1681565b5f81116101f3576040517f08c379a00000000000000000000000000000000000000000000000000000000081526004016101ea90610741565b60405180910390fd5b60035f9054906101000a900473ffffffffffffffffffffffffffffffffffffffff1673ffffffffffffffffffffffffffffffffffffffff166323b872dd3330846040518463ffffffff1660e01b81526004016102519392919061075f565b6020604051808303815f875af115801561026d573d5f803e3d5ffd5b505050506040513d601f19601f8201168201806040525081019061029191906107be565b508060045f3373ffffffffffffffffffffffffffffffffffffffff1673ffffffffffffffffffffffffffffffffffffffff1681526020019081526020015f205f8282546102de9190610816565b925050819055508060015f8282546102f69190610816565b925050819055506002546001541061032357600160055f6101000a81548160ff0219169083151502179055505b50565b60025481565b60055f9054906101000a900460ff161561037b576040517f08c379a0000000000000000000000000000000000000000000000000000000008152600401610372906108b9565b60405180910390fd5b5f60045f3373ffffffffffffffffffffffffffffffffffffffff1673ffffffffffffffffffffffffffffffffffffffff1681526020019081526020015f2054116103fa576040517f08c379a00000000000000000000000000000000000000000000000000000000081526004016103f190610921565b60405180910390fd5b5f60045f3373ffffffffffffffffffffffffffffffffffffffff1673ffffffffffffffffffffffffffffffffffffffff1681526020019081526020015f205490505f60045f3373ffffffffffffffffffffffffffffffffffffffff1673ffffffffffffffffffffffffffffffffffffffff1681526020019081526020015f208190555060035f9054906101000a900473ffffffffffffffffffffffffffffffffffffffff1673ffffffffffffffffffffffffffffffffffffffff1663a9059cbb33836040518363ffffffff1660e01b81526004016104d992919061093f565b6020604051808303815f875af11580156104f5573d5f803e3d5ffd5b505050506040513d601f19601f8201168201806040525081019061051991906107be565b5050565b6004602052805f5260405f205f915090505481565b60035f9054906101000a900473ffffffffffffffffffffffffffffffffffffffff1681565b5f819050919050565b61056981610557565b82525050565b5f6020820190506105825f830184610560565b92915050565b5f8115159050919050565b61059c81610588565b82525050565b5f6020820190506105b55f830184610593565b92915050565b5f73ffffffffffffffffffffffffffffffffffffffff82169050919050565b5f6105e4826105bb565b9050919050565b6105f4816105da565b82525050565b5f60208201905061060d5f8301846105eb565b92915050565b5f80fd5b61062081610557565b811461062a575f80fd5b50565b5f8135905061063b81610617565b92915050565b5f6020828403121561065657610655610613565b5b5f6106638482850161062d565b91505092915050565b610675816105da565b811461067f575f80fd5b50565b5f813590506106908161066c565b92915050565b5f602082840312156106ab576106aa610613565b5b5f6106b884828501610682565b91505092915050565b5f82825260208201905092915050565b7f566f757320646576657a20766f746572206176656320756e206d6f6e74616e745f8201527f20706f7369746966206465206d6f6e6e61696573000000000000000000000000602082015250565b5f61072b6034836106c1565b9150610736826106d1565b604082019050919050565b5f6020820190508181035f8301526107588161071f565b9050919050565b5f6060820190506107725f8301866105eb565b61077f60208301856105eb565b61078c6040830184610560565b949350505050565b61079d81610588565b81146107a7575f80fd5b50565b5f815190506107b881610794565b92915050565b5f602082840312156107d3576107d2610613565b5b5f6107e0848285016107aa565b91505092915050565b7f4e487b71000000000000000000000000000000000000000000000000000000005f52601160045260245ffd5b5f61082082610557565b915061082b83610557565b9250828201905080821115610843576108426107e9565b5b92915050565b7f4c652070726f6a657420657374207265757373692c20617563756e2072656d625f8201527f6f757273656d656e7420706f737369626c650000000000000000000000000000602082015250565b5f6108a36032836106c1565b91506108ae82610849565b604082019050919050565b5f6020820190508181035f8301526108d081610897565b9050919050565b7f417563756e20766f746520612072656d626f75727365720000000000000000005f82015250565b5f61090b6017836106c1565b9150610916826108d7565b602082019050919050565b5f6020820190508181035f830152610938816108ff565b9050919050565b5f6040820190506109525f8301856105eb565b61095f6020830184610560565b939250505056fea26469706673582212200e2055c7a8e6508f171b084f0dbad56858a6eeb21309ea4a163ae5f061e6c07964736f6c63430008150033",
  "immutableReferences": {},
  "source": "// SPDX-License-Identifier: MIT\r\npragma solidity ^0.8.20;\r\n\r\n// Importer l'interface IERC20 depuis OpenZeppelin\r\nimport \"@openzeppelin/contracts/token/ERC20/IERC20.sol\";\r\n\r\ncontract ContratDeVote {\r\n    address public administrateur;\r\n    uint256 public totalVotes;\r\n    uint256 public votesRequis;\r\n    address public adresseMonnaie;\r\n\r\n    mapping(address => uint256) public votes;\r\n    bool public projetReussi;\r\n\r\n    // Le constructeur initialise les paramtres du vote\r\n    constructor(uint256 _votesRequis, address _adresseMonnaie) {\r\n        administrateur = msg.sender;\r\n        votesRequis = _votesRequis;\r\n        adresseMonnaie = _adresseMonnaie;\r\n        projetReussi = false;\r\n    }\r\n\r\n    // Fonction pour permettre aux utilisateurs de voter en envoyant des tokens\r\n    function voter(uint256 montant) external {\r\n        require(montant > 0, \"Vous devez voter avec un montant positif de monnaies\");\r\n\r\n        IERC20(adresseMonnaie).transferFrom(msg.sender, address(this), montant);\r\n\r\n        votes[msg.sender] += montant;\r\n        totalVotes += montant;\r\n\r\n        // Vrifie si le nombre de votes requis est atteint\r\n        if (totalVotes >= votesRequis) {\r\n            projetReussi = true;\r\n        }\r\n    }\r\n\r\n    // Fonction de remboursement si le projet choue\r\n    function remboursement() external {\r\n        require(!projetReussi, \"Le projet est reussi, aucun remboursement possible\");\r\n        require(votes[msg.sender] > 0, \"Aucun vote a rembourser\");\r\n\r\n        uint256 montantVotant = votes[msg.sender];\r\n        votes[msg.sender] = 0;\r\n\r\n        IERC20(adresseMonnaie).transfer(msg.sender, montantVotant);\r\n    }\r\n}",
  "sourcePath": "C:\\Users\\KAM Samy\\ProjetDeListing\\contracts\\ContratDeVote.sol",
  "compiler": {
    "name": "solc",
    "version": "0.8.21+commit.d9974bed.Emscripten.clang"
  },
  "schemaVersion": "3.4.16",
  "updatedAt": "2024-09-16T10:14:13.663Z",
  "networkType": "ethereum",
  "devdoc": {
    "kind": "dev",
    "methods": {},
    "version": 1
  },
  "userdoc": {
    "kind": "user",
    "methods": {},
    "version": 1
  }
}