{
  "contractName": "ContratDeVote",
  "abi": [
    {
      "inputs": [
        {
          "internalType": "uint256",
          "name": "_votesRequis",
          "type": "uint256"
        },
        {
          "internalType": "address",
          "name": "_adresseToken",
          "type": "address"
        }
      ],
      "stateMutability": "nonpayable",
      "type": "constructor"
    },
    {
      "inputs": [],
      "name": "administrateur",
      "outputs": [
        {
          "internalType": "address",
          "name": "",
          "type": "address"
        }
      ],
      "stateMutability": "view",
      "type": "function"
    },
    {
      "inputs": [],
      "name": "adresseToken",
      "outputs": [
        {
          "internalType": "address",
          "name": "",
          "type": "address"
        }
      ],
      "stateMutability": "view",
      "type": "function"
    },
    {
      "inputs": [],
      "name": "projetReussi",
      "outputs": [
        {
          "internalType": "bool",
          "name": "",
          "type": "bool"
        }
      ],
      "stateMutability": "view",
      "type": "function"
    },
    {
      "inputs": [],
      "name": "totalVotes",
      "outputs": [
        {
          "internalType": "uint256",
          "name": "",
          "type": "uint256"
        }
      ],
      "stateMutability": "view",
      "type": "function"
    },
    {
      "inputs": [
        {
          "internalType": "address",
          "name": "",
          "type": "address"
        }
      ],
      "name": "votes",
      "outputs": [
        {
          "internalType": "uint256",
          "name": "",
          "type": "uint256"
        }
      ],
      "stateMutability": "view",
      "type": "function"
    },
    {
      "inputs": [],
      "name": "votesRequis",
      "outputs": [
        {
          "internalType": "uint256",
          "name": "",
          "type": "uint256"
        }
      ],
      "stateMutability": "view",
      "type": "function"
    },
    {
      "inputs": [
        {
          "internalType": "uint256",
          "name": "montant",
          "type": "uint256"
        }
      ],
      "name": "voter",
      "outputs": [],
      "stateMutability": "nonpayable",
      "type": "function"
    },
    {
      "inputs": [],
      "name": "remboursement",
      "outputs": [],
      "stateMutability": "nonpayable",
      "type": "function"
    }
  ],
  "bytecode": "0x608060405234801561001057600080fd5b50604051610bac380380610bac83398181016040528101906100329190610175565b336000806101000a81548173ffffffffffffffffffffffffffffffffffffffff021916908373ffffffffffffffffffffffffffffffffffffffff1602179055508160028190555080600360006101000a81548173ffffffffffffffffffffffffffffffffffffffff021916908373ffffffffffffffffffffffffffffffffffffffff1602179055506000600560006101000a81548160ff02191690831515021790555050506101b5565b600080fd5b6000819050919050565b6100f4816100e1565b81146100ff57600080fd5b50565b600081519050610111816100eb565b92915050565b600073ffffffffffffffffffffffffffffffffffffffff82169050919050565b600061014282610117565b9050919050565b61015281610137565b811461015d57600080fd5b50565b60008151905061016f81610149565b92915050565b6000806040838503121561018c5761018b6100dc565b5b600061019a85828601610102565b92505060206101ab85828601610160565b9150509250929050565b6109e8806101c46000396000f3fe608060405234801561001057600080fd5b50600436106100885760003560e01c8063ab8ed1ba1161005b578063ab8ed1ba14610105578063d64cb35214610121578063d69099301461013f578063d8bff5a51461014957610088565b80630d15fd771461008d5780631b2655c9146100ab5780635feb5c08146100c9578063a0ce7b41146100e7575b600080fd5b610095610179565b6040516100a29190610591565b60405180910390f35b6100b361017f565b6040516100c091906105c7565b60405180910390f35b6100d1610192565b6040516100de9190610623565b60405180910390f35b6100ef6101b8565b6040516100fc9190610623565b60405180910390f35b61011f600480360381019061011a919061066f565b6101dc565b005b61012961035b565b6040516101369190610591565b60405180910390f35b610147610361565b005b610163600480360381019061015e91906106c8565b610560565b6040516101709190610591565b60405180910390f35b60015481565b600560009054906101000a900460ff1681565b600360009054906101000a900473ffffffffffffffffffffffffffffffffffffffff1681565b60008054906101000a900473ffffffffffffffffffffffffffffffffffffffff1681565b6000811161021f576040517f08c379a000000000000000000000000000000000000000000000000000000000815260040161021690610778565b60405180910390fd5b600360009054906101000a900473ffffffffffffffffffffffffffffffffffffffff1673ffffffffffffffffffffffffffffffffffffffff166323b872dd3330846040518463ffffffff1660e01b815260040161027e93929190610798565b6020604051808303816000875af115801561029d573d6000803e3d6000fd5b505050506040513d601f19601f820116820180604052508101906102c191906107fb565b5080600460003373ffffffffffffffffffffffffffffffffffffffff1673ffffffffffffffffffffffffffffffffffffffff16815260200190815260200160002060008282546103119190610857565b92505081905550806001600082825461032a9190610857565b9250508190555060025460015410610358576001600560006101000a81548160ff0219169083151502179055505b50565b60025481565b600560009054906101000a900460ff16156103b1576040517f08c379a00000000000000000000000000000000000000000000000000000000081526004016103a8906108fd565b60405180910390fd5b6000600460003373ffffffffffffffffffffffffffffffffffffffff1673ffffffffffffffffffffffffffffffffffffffff1681526020019081526020016000205411610433576040517f08c379a000000000000000000000000000000000000000000000000000000000815260040161042a90610969565b60405180910390fd5b6000600460003373ffffffffffffffffffffffffffffffffffffffff1673ffffffffffffffffffffffffffffffffffffffff1681526020019081526020016000205490506000600460003373ffffffffffffffffffffffffffffffffffffffff1673ffffffffffffffffffffffffffffffffffffffff16815260200190815260200160002081905550600360009054906101000a900473ffffffffffffffffffffffffffffffffffffffff1673ffffffffffffffffffffffffffffffffffffffff1663a9059cbb33836040518363ffffffff1660e01b8152600401610519929190610989565b6020604051808303816000875af1158015610538573d6000803e3d6000fd5b505050506040513d601f19601f8201168201806040525081019061055c91906107fb565b5050565b60046020528060005260406000206000915090505481565b6000819050919050565b61058b81610578565b82525050565b60006020820190506105a66000830184610582565b92915050565b60008115159050919050565b6105c1816105ac565b82525050565b60006020820190506105dc60008301846105b8565b92915050565b600073ffffffffffffffffffffffffffffffffffffffff82169050919050565b600061060d826105e2565b9050919050565b61061d81610602565b82525050565b60006020820190506106386000830184610614565b92915050565b600080fd5b61064c81610578565b811461065757600080fd5b50565b60008135905061066981610643565b92915050565b6000602082840312156106855761068461063e565b5b60006106938482850161065a565b91505092915050565b6106a581610602565b81146106b057600080fd5b50565b6000813590506106c28161069c565b92915050565b6000602082840312156106de576106dd61063e565b5b60006106ec848285016106b3565b91505092915050565b600082825260208201905092915050565b7f566f757320646576657a20766f746572206176656320756e206d6f6e74616e7460008201527f20706f736974696620646520746f6b656e730000000000000000000000000000602082015250565b60006107626032836106f5565b915061076d82610706565b604082019050919050565b6000602082019050818103600083015261079181610755565b9050919050565b60006060820190506107ad6000830186610614565b6107ba6020830185610614565b6107c76040830184610582565b949350505050565b6107d8816105ac565b81146107e357600080fd5b50565b6000815190506107f5816107cf565b92915050565b6000602082840312156108115761081061063e565b5b600061081f848285016107e6565b91505092915050565b7f4e487b7100000000000000000000000000000000000000000000000000000000600052601160045260246000fd5b600061086282610578565b915061086d83610578565b925082820190508082111561088557610884610828565b5b92915050565b7f4c652070726f6a657420657374207265757373692c20617563756e2072656d6260008201527f6f757273656d656e7420706f737369626c650000000000000000000000000000602082015250565b60006108e76032836106f5565b91506108f28261088b565b604082019050919050565b60006020820190508181036000830152610916816108da565b9050919050565b7f417563756e20766f746520612072656d626f7572736572000000000000000000600082015250565b60006109536017836106f5565b915061095e8261091d565b602082019050919050565b6000602082019050818103600083015261098281610946565b9050919050565b600060408201905061099e6000830185610614565b6109ab6020830184610582565b939250505056fea26469706673582212200eeb8267bb631c3417686dd9dfa1f12046e7ac0d49a0b96562bfc64c4d74ea8c64736f6c63430008140033",
  "immutableReferences": {},
  "source": "// SPDX-License-Identifier: MIT\r\npragma solidity ^0.8.0;\r\n\r\ninterface IERC20 {\r\n    function transferFrom(address sender, address recipient, uint256 amount) external returns (bool);\r\n    function transfer(address recipient, uint256 amount) external returns (bool);\r\n}\r\n\r\ncontract ContratDeVote {\r\n    address public administrateur;\r\n    uint256 public totalVotes;\r\n    uint256 public votesRequis;\r\n    address public adresseToken;\r\n\r\n    mapping(address => uint256) public votes;\r\n    bool public projetReussi;\r\n\r\n    constructor(uint256 _votesRequis, address _adresseToken) {\r\n        administrateur = msg.sender;\r\n        votesRequis = _votesRequis;\r\n        adresseToken = _adresseToken;\r\n        projetReussi = false;\r\n    }\r\n\r\n    function voter(uint256 montant) external {\r\n        require(montant > 0, \"Vous devez voter avec un montant positif de tokens\");\r\n\r\n        IERC20(adresseToken).transferFrom(msg.sender, address(this), montant);\r\n\r\n        votes[msg.sender] += montant;\r\n        totalVotes += montant;\r\n\r\n        if (totalVotes >= votesRequis) {\r\n            projetReussi = true;\r\n        }\r\n    }\r\n\r\n    function remboursement() external {\r\n        require(!projetReussi, \"Le projet est reussi, aucun remboursement possible\");\r\n        require(votes[msg.sender] > 0, \"Aucun vote a rembourser\");\r\n\r\n        uint256 montantVotant = votes[msg.sender];\r\n        votes[msg.sender] = 0;\r\n\r\n        IERC20(adresseToken).transfer(msg.sender, montantVotant);\r\n    }\r\n}",
  "sourcePath": "C:\\Users\\KAM Samy\\Desktop\\ProjetDeListing\\contracts\\ContratDeVote.sol",
  "compiler": {
    "name": "solc",
    "version": "0.8.20+commit.a1b79de6.Emscripten.clang"
  },
  "schemaVersion": "3.4.16",
  "updatedAt": "2024-09-08T02:19:15.436Z",
  "devdoc": {
    "kind": "dev",
    "methods": {},
    "version": 1
  },
  "userdoc": {
    "kind": "user",
    "methods": {},
    "version": 1
  }
}