{
  "contractName": "Monnaie",
  "abi": [
    {
      "inputs": [],
      "stateMutability": "nonpayable",
      "type": "constructor"
    },
    {
      "inputs": [
        {
          "internalType": "address",
          "name": "spender",
          "type": "address"
        },
        {
          "internalType": "uint256",
          "name": "allowance",
          "type": "uint256"
        },
        {
          "internalType": "uint256",
          "name": "needed",
          "type": "uint256"
        }
      ],
      "name": "ERC20InsufficientAllowance",
      "type": "error"
    },
    {
      "inputs": [
        {
          "internalType": "address",
          "name": "sender",
          "type": "address"
        },
        {
          "internalType": "uint256",
          "name": "balance",
          "type": "uint256"
        },
        {
          "internalType": "uint256",
          "name": "needed",
          "type": "uint256"
        }
      ],
      "name": "ERC20InsufficientBalance",
      "type": "error"
    },
    {
      "inputs": [
        {
          "internalType": "address",
          "name": "approver",
          "type": "address"
        }
      ],
      "name": "ERC20InvalidApprover",
      "type": "error"
    },
    {
      "inputs": [
        {
          "internalType": "address",
          "name": "receiver",
          "type": "address"
        }
      ],
      "name": "ERC20InvalidReceiver",
      "type": "error"
    },
    {
      "inputs": [
        {
          "internalType": "address",
          "name": "sender",
          "type": "address"
        }
      ],
      "name": "ERC20InvalidSender",
      "type": "error"
    },
    {
      "inputs": [
        {
          "internalType": "address",
          "name": "spender",
          "type": "address"
        }
      ],
      "name": "ERC20InvalidSpender",
      "type": "error"
    },
    {
      "anonymous": false,
      "inputs": [
        {
          "indexed": true,
          "internalType": "address",
          "name": "owner",
          "type": "address"
        },
        {
          "indexed": true,
          "internalType": "address",
          "name": "spender",
          "type": "address"
        },
        {
          "indexed": false,
          "internalType": "uint256",
          "name": "value",
          "type": "uint256"
        }
      ],
      "name": "Approval",
      "type": "event"
    },
    {
      "anonymous": false,
      "inputs": [
        {
          "indexed": true,
          "internalType": "address",
          "name": "from",
          "type": "address"
        },
        {
          "indexed": true,
          "internalType": "address",
          "name": "to",
          "type": "address"
        },
        {
          "indexed": false,
          "internalType": "uint256",
          "name": "value",
          "type": "uint256"
        }
      ],
      "name": "Transfer",
      "type": "event"
    },
    {
      "inputs": [],
      "name": "administrateur",
      "outputs": [
        {
          "internalType": "address",
          "name": "",
          "type": "address"
        }
      ],
      "stateMutability": "view",
      "type": "function",
      "constant": true
    },
    {
      "inputs": [
        {
          "internalType": "address",
          "name": "owner",
          "type": "address"
        },
        {
          "internalType": "address",
          "name": "spender",
          "type": "address"
        }
      ],
      "name": "allowance",
      "outputs": [
        {
          "internalType": "uint256",
          "name": "",
          "type": "uint256"
        }
      ],
      "stateMutability": "view",
      "type": "function",
      "constant": true
    },
    {
      "inputs": [
        {
          "internalType": "address",
          "name": "spender",
          "type": "address"
        },
        {
          "internalType": "uint256",
          "name": "value",
          "type": "uint256"
        }
      ],
      "name": "approve",
      "outputs": [
        {
          "internalType": "bool",
          "name": "",
          "type": "bool"
        }
      ],
      "stateMutability": "nonpayable",
      "type": "function"
    },
    {
      "inputs": [
        {
          "internalType": "address",
          "name": "account",
          "type": "address"
        }
      ],
      "name": "balanceOf",
      "outputs": [
        {
          "internalType": "uint256",
          "name": "",
          "type": "uint256"
        }
      ],
      "stateMutability": "view",
      "type": "function",
      "constant": true
    },
    {
      "inputs": [],
      "name": "decimals",
      "outputs": [
        {
          "internalType": "uint8",
          "name": "",
          "type": "uint8"
        }
      ],
      "stateMutability": "view",
      "type": "function",
      "constant": true
    },
    {
      "inputs": [],
      "name": "name",
      "outputs": [
        {
          "internalType": "string",
          "name": "",
          "type": "string"
        }
      ],
      "stateMutability": "view",
      "type": "function",
      "constant": true
    },
    {
      "inputs": [],
      "name": "symbol",
      "outputs": [
        {
          "internalType": "string",
          "name": "",
          "type": "string"
        }
      ],
      "stateMutability": "view",
      "type": "function",
      "constant": true
    },
    {
      "inputs": [],
      "name": "totalSupply",
      "outputs": [
        {
          "internalType": "uint256",
          "name": "",
          "type": "uint256"
        }
      ],
      "stateMutability": "view",
      "type": "function",
      "constant": true
    },
    {
      "inputs": [
        {
          "internalType": "address",
          "name": "to",
          "type": "address"
        },
        {
          "internalType": "uint256",
          "name": "value",
          "type": "uint256"
        }
      ],
      "name": "transfer",
      "outputs": [
        {
          "internalType": "bool",
          "name": "",
          "type": "bool"
        }
      ],
      "stateMutability": "nonpayable",
      "type": "function"
    },
    {
      "inputs": [
        {
          "internalType": "address",
          "name": "from",
          "type": "address"
        },
        {
          "internalType": "address",
          "name": "to",
          "type": "address"
        },
        {
          "internalType": "uint256",
          "name": "value",
          "type": "uint256"
        }
      ],
      "name": "transferFrom",
      "outputs": [
        {
          "internalType": "bool",
          "name": "",
          "type": "bool"
        }
      ],
      "stateMutability": "nonpayable",
      "type": "function"
    },
    {
      "inputs": [
        {
          "internalType": "address",
          "name": "destinataire",
          "type": "address"
        },
        {
          "internalType": "uint256",
          "name": "montant",
          "type": "uint256"
        }
      ],
      "name": "frapper",
      "outputs": [],
      "stateMutability": "nonpayable",
      "type": "function"
    }
  ],
  "bytecode": "0x608060405234801562000010575f80fd5b506040518060400160405280600781526020017f4d6f6e6e616965000000000000000000000000000000000000000000000000008152506040518060400160405280600381526020017f4d4e41000000000000000000000000000000000000000000000000000000000081525081600390816200008e919062000642565b508060049081620000a0919062000642565b505050620000e233620000b86200012860201b60201c565b600a620000c69190620008af565b620f4240620000d69190620008ff565b6200013060201b60201c565b3360055f6101000a81548173ffffffffffffffffffffffffffffffffffffffff021916908373ffffffffffffffffffffffffffffffffffffffff16021790555062000a48565b5f6012905090565b5f73ffffffffffffffffffffffffffffffffffffffff168273ffffffffffffffffffffffffffffffffffffffff1603620001a3575f6040517fec442f050000000000000000000000000000000000000000000000000000000081526004016200019a91906200098c565b60405180910390fd5b620001b65f8383620001ba60201b60201c565b5050565b5f73ffffffffffffffffffffffffffffffffffffffff168373ffffffffffffffffffffffffffffffffffffffff16036200020e578060025f828254620002019190620009a7565b92505081905550620002df565b5f805f8573ffffffffffffffffffffffffffffffffffffffff1673ffffffffffffffffffffffffffffffffffffffff1681526020019081526020015f20549050818110156200029a578381836040517fe450d38c0000000000000000000000000000000000000000000000000000000081526004016200029193929190620009f2565b60405180910390fd5b8181035f808673ffffffffffffffffffffffffffffffffffffffff1673ffffffffffffffffffffffffffffffffffffffff1681526020019081526020015f2081905550505b5f73ffffffffffffffffffffffffffffffffffffffff168273ffffffffffffffffffffffffffffffffffffffff160362000328578060025f828254039250508190555062000372565b805f808473ffffffffffffffffffffffffffffffffffffffff1673ffffffffffffffffffffffffffffffffffffffff1681526020019081526020015f205f82825401925050819055505b8173ffffffffffffffffffffffffffffffffffffffff168373ffffffffffffffffffffffffffffffffffffffff167fddf252ad1be2c89b69c2b068fc378daa952ba7f163c4a11628f55a4df523b3ef83604051620003d1919062000a2d565b60405180910390a3505050565b5f81519050919050565b7f4e487b71000000000000000000000000000000000000000000000000000000005f52604160045260245ffd5b7f4e487b71000000000000000000000000000000000000000000000000000000005f52602260045260245ffd5b5f60028204905060018216806200045a57607f821691505b60208210810362000470576200046f62000415565b5b50919050565b5f819050815f5260205f209050919050565b5f6020601f8301049050919050565b5f82821b905092915050565b5f60088302620004d47fffffffffffffffffffffffffffffffffffffffffffffffffffffffffffffffff8262000497565b620004e0868362000497565b95508019841693508086168417925050509392505050565b5f819050919050565b5f819050919050565b5f6200052a620005246200051e84620004f8565b62000501565b620004f8565b9050919050565b5f819050919050565b62000545836200050a565b6200055d620005548262000531565b848454620004a3565b825550505050565b5f90565b6200057362000565565b620005808184846200053a565b505050565b5b81811015620005a7576200059b5f8262000569565b60018101905062000586565b5050565b601f821115620005f657620005c08162000476565b620005cb8462000488565b81016020851015620005db578190505b620005f3620005ea8562000488565b83018262000585565b50505b505050565b5f82821c905092915050565b5f620006185f1984600802620005fb565b1980831691505092915050565b5f62000632838362000607565b9150826002028217905092915050565b6200064d82620003de565b67ffffffffffffffff811115620006695762000668620003e8565b5b62000675825462000442565b62000682828285620005ab565b5f60209050601f831160018114620006b8575f8415620006a3578287015190505b620006af858262000625565b8655506200071e565b601f198416620006c88662000476565b5f5b82811015620006f157848901518255600182019150602085019450602081019050620006ca565b868310156200071157848901516200070d601f89168262000607565b8355505b6001600288020188555050505b505050505050565b7f4e487b71000000000000000000000000000000000000000000000000000000005f52601160045260245ffd5b5f8160011c9050919050565b5f808291508390505b6001851115620007b05780860481111562000788576200078762000726565b5b6001851615620007985780820291505b8081029050620007a88562000753565b945062000768565b94509492505050565b5f82620007ca57600190506200089c565b81620007d9575f90506200089c565b8160018114620007f25760028114620007fd5762000833565b60019150506200089c565b60ff84111562000812576200081162000726565b5b8360020a9150848211156200082c576200082b62000726565b5b506200089c565b5060208310610133831016604e8410600b84101617156200086d5782820a90508381111562000867576200086662000726565b5b6200089c565b6200087c84848460016200075f565b9250905081840481111562000896576200089562000726565b5b81810290505b9392505050565b5f60ff82169050919050565b5f620008bb82620004f8565b9150620008c883620008a3565b9250620008f77fffffffffffffffffffffffffffffffffffffffffffffffffffffffffffffffff8484620007b9565b905092915050565b5f6200090b82620004f8565b91506200091883620004f8565b92508282026200092881620004f8565b9150828204841483151762000942576200094162000726565b5b5092915050565b5f73ffffffffffffffffffffffffffffffffffffffff82169050919050565b5f620009748262000949565b9050919050565b620009868162000968565b82525050565b5f602082019050620009a15f8301846200097b565b92915050565b5f620009b382620004f8565b9150620009c083620004f8565b9250828201905080821115620009db57620009da62000726565b5b92915050565b620009ec81620004f8565b82525050565b5f60608201905062000a075f8301866200097b565b62000a166020830185620009e1565b62000a256040830184620009e1565b949350505050565b5f60208201905062000a425f830184620009e1565b92915050565b61101a8062000a565f395ff3fe608060405234801561000f575f80fd5b50600436106100a7575f3560e01c80636695c6dc1161006f5780636695c6dc1461016557806370a082311461018157806395d89b41146101b1578063a0ce7b41146101cf578063a9059cbb146101ed578063dd62ed3e1461021d576100a7565b806306fdde03146100ab578063095ea7b3146100c957806318160ddd146100f957806323b872dd14610117578063313ce56714610147575b5f80fd5b6100b361024d565b6040516100c09190610c05565b60405180910390f35b6100e360048036038101906100de9190610cb6565b6102dd565b6040516100f09190610d0e565b60405180910390f35b6101016102ff565b60405161010e9190610d36565b60405180910390f35b610131600480360381019061012c9190610d4f565b610308565b60405161013e9190610d0e565b60405180910390f35b61014f610336565b60405161015c9190610dba565b60405180910390f35b61017f600480360381019061017a9190610cb6565b61033e565b005b61019b60048036038101906101969190610dd3565b6103db565b6040516101a89190610d36565b60405180910390f35b6101b9610420565b6040516101c69190610c05565b60405180910390f35b6101d76104b0565b6040516101e49190610e0d565b60405180910390f35b61020760048036038101906102029190610cb6565b6104d5565b6040516102149190610d0e565b60405180910390f35b61023760048036038101906102329190610e26565b6104f7565b6040516102449190610d36565b60405180910390f35b60606003805461025c90610e91565b80601f016020809104026020016040519081016040528092919081815260200182805461028890610e91565b80156102d35780601f106102aa576101008083540402835291602001916102d3565b820191905f5260205f20905b8154815290600101906020018083116102b657829003601f168201915b5050505050905090565b5f806102e7610579565b90506102f4818585610580565b600191505092915050565b5f600254905090565b5f80610312610579565b905061031f858285610592565b61032a858585610624565b60019150509392505050565b5f6012905090565b60055f9054906101000a900473ffffffffffffffffffffffffffffffffffffffff1673ffffffffffffffffffffffffffffffffffffffff163373ffffffffffffffffffffffffffffffffffffffff16146103cd576040517f08c379a00000000000000000000000000000000000000000000000000000000081526004016103c490610f31565b60405180910390fd5b6103d78282610714565b5050565b5f805f8373ffffffffffffffffffffffffffffffffffffffff1673ffffffffffffffffffffffffffffffffffffffff1681526020019081526020015f20549050919050565b60606004805461042f90610e91565b80601f016020809104026020016040519081016040528092919081815260200182805461045b90610e91565b80156104a65780601f1061047d576101008083540402835291602001916104a6565b820191905f5260205f20905b81548152906001019060200180831161048957829003601f168201915b5050505050905090565b60055f9054906101000a900473ffffffffffffffffffffffffffffffffffffffff1681565b5f806104df610579565b90506104ec818585610624565b600191505092915050565b5f60015f8473ffffffffffffffffffffffffffffffffffffffff1673ffffffffffffffffffffffffffffffffffffffff1681526020019081526020015f205f8373ffffffffffffffffffffffffffffffffffffffff1673ffffffffffffffffffffffffffffffffffffffff1681526020019081526020015f2054905092915050565b5f33905090565b61058d8383836001610793565b505050565b5f61059d84846104f7565b90507fffffffffffffffffffffffffffffffffffffffffffffffffffffffffffffffff811461061e578181101561060f578281836040517ffb8f41b200000000000000000000000000000000000000000000000000000000815260040161060693929190610f4f565b60405180910390fd5b61061d84848484035f610793565b5b50505050565b5f73ffffffffffffffffffffffffffffffffffffffff168373ffffffffffffffffffffffffffffffffffffffff1603610694575f6040517f96c6fd1e00000000000000000000000000000000000000000000000000000000815260040161068b9190610e0d565b60405180910390fd5b5f73ffffffffffffffffffffffffffffffffffffffff168273ffffffffffffffffffffffffffffffffffffffff1603610704575f6040517fec442f050000000000000000000000000000000000000000000000000000000081526004016106fb9190610e0d565b60405180910390fd5b61070f838383610962565b505050565b5f73ffffffffffffffffffffffffffffffffffffffff168273ffffffffffffffffffffffffffffffffffffffff1603610784575f6040517fec442f0500000000000000000000000000000000000000000000000000000000815260040161077b9190610e0d565b60405180910390fd5b61078f5f8383610962565b5050565b5f73ffffffffffffffffffffffffffffffffffffffff168473ffffffffffffffffffffffffffffffffffffffff1603610803575f6040517fe602df050000000000000000000000000000000000000000000000000000000081526004016107fa9190610e0d565b60405180910390fd5b5f73ffffffffffffffffffffffffffffffffffffffff168373ffffffffffffffffffffffffffffffffffffffff1603610873575f6040517f94280d6200000000000000000000000000000000000000000000000000000000815260040161086a9190610e0d565b60405180910390fd5b8160015f8673ffffffffffffffffffffffffffffffffffffffff1673ffffffffffffffffffffffffffffffffffffffff1681526020019081526020015f205f8573ffffffffffffffffffffffffffffffffffffffff1673ffffffffffffffffffffffffffffffffffffffff1681526020019081526020015f2081905550801561095c578273ffffffffffffffffffffffffffffffffffffffff168473ffffffffffffffffffffffffffffffffffffffff167f8c5be1e5ebec7d5bd14f71427d1e84f3dd0314c0f7b2291e5b200ac8c7c3b925846040516109539190610d36565b60405180910390a35b50505050565b5f73ffffffffffffffffffffffffffffffffffffffff168373ffffffffffffffffffffffffffffffffffffffff16036109b2578060025f8282546109a69190610fb1565b92505081905550610a80565b5f805f8573ffffffffffffffffffffffffffffffffffffffff1673ffffffffffffffffffffffffffffffffffffffff1681526020019081526020015f2054905081811015610a3b578381836040517fe450d38c000000000000000000000000000000000000000000000000000000008152600401610a3293929190610f4f565b60405180910390fd5b8181035f808673ffffffffffffffffffffffffffffffffffffffff1673ffffffffffffffffffffffffffffffffffffffff1681526020019081526020015f2081905550505b5f73ffffffffffffffffffffffffffffffffffffffff168273ffffffffffffffffffffffffffffffffffffffff1603610ac7578060025f8282540392505081905550610b11565b805f808473ffffffffffffffffffffffffffffffffffffffff1673ffffffffffffffffffffffffffffffffffffffff1681526020019081526020015f205f82825401925050819055505b8173ffffffffffffffffffffffffffffffffffffffff168373ffffffffffffffffffffffffffffffffffffffff167fddf252ad1be2c89b69c2b068fc378daa952ba7f163c4a11628f55a4df523b3ef83604051610b6e9190610d36565b60405180910390a3505050565b5f81519050919050565b5f82825260208201905092915050565b5f5b83811015610bb2578082015181840152602081019050610b97565b5f8484015250505050565b5f601f19601f8301169050919050565b5f610bd782610b7b565b610be18185610b85565b9350610bf1818560208601610b95565b610bfa81610bbd565b840191505092915050565b5f6020820190508181035f830152610c1d8184610bcd565b905092915050565b5f80fd5b5f73ffffffffffffffffffffffffffffffffffffffff82169050919050565b5f610c5282610c29565b9050919050565b610c6281610c48565b8114610c6c575f80fd5b50565b5f81359050610c7d81610c59565b92915050565b5f819050919050565b610c9581610c83565b8114610c9f575f80fd5b50565b5f81359050610cb081610c8c565b92915050565b5f8060408385031215610ccc57610ccb610c25565b5b5f610cd985828601610c6f565b9250506020610cea85828601610ca2565b9150509250929050565b5f8115159050919050565b610d0881610cf4565b82525050565b5f602082019050610d215f830184610cff565b92915050565b610d3081610c83565b82525050565b5f602082019050610d495f830184610d27565b92915050565b5f805f60608486031215610d6657610d65610c25565b5b5f610d7386828701610c6f565b9350506020610d8486828701610c6f565b9250506040610d9586828701610ca2565b9150509250925092565b5f60ff82169050919050565b610db481610d9f565b82525050565b5f602082019050610dcd5f830184610dab565b92915050565b5f60208284031215610de857610de7610c25565b5b5f610df584828501610c6f565b91505092915050565b610e0781610c48565b82525050565b5f602082019050610e205f830184610dfe565b92915050565b5f8060408385031215610e3c57610e3b610c25565b5b5f610e4985828601610c6f565b9250506020610e5a85828601610c6f565b9150509250929050565b7f4e487b71000000000000000000000000000000000000000000000000000000005f52602260045260245ffd5b5f6002820490506001821680610ea857607f821691505b602082108103610ebb57610eba610e64565b5b50919050565b7f5365756c206c61646d696e6973747261746575722070657574206672617070655f8201527f722064657320746f6b656e732e00000000000000000000000000000000000000602082015250565b5f610f1b602d83610b85565b9150610f2682610ec1565b604082019050919050565b5f6020820190508181035f830152610f4881610f0f565b9050919050565b5f606082019050610f625f830186610dfe565b610f6f6020830185610d27565b610f7c6040830184610d27565b949350505050565b7f4e487b71000000000000000000000000000000000000000000000000000000005f52601160045260245ffd5b5f610fbb82610c83565b9150610fc683610c83565b9250828201905080821115610fde57610fdd610f84565b5b9291505056fea26469706673582212201bd44b0bb1b68dcbeff0c65ad399a266ecf76553f1c993bcdeff92ad6f3bd8fc64736f6c63430008150033",
  "immutableReferences": {},
  "source": "// SPDX-License-Identifier: MIT\r\npragma solidity ^0.8.20;\r\n\r\n// Importation du contrat ERC-20 depuis OpenZeppelin\r\nimport \"@openzeppelin/contracts/token/ERC20/ERC20.sol\";\r\n\r\n// Contrat Monnaie, un token ERC-20\r\ncontract Monnaie is ERC20 {\r\n    // Adresse de l'administrateur capable de frapper des tokens\r\n    address public administrateur;\r\n\r\n    // Le constructeur initialise le token avec un nom et un symbole\r\n    constructor() ERC20(\"Monnaie\", \"MNA\") {\r\n        // L'administrateur reoit un nombre initial de tokens\r\n        _mint(msg.sender, 1000000 * 10 ** decimals());\r\n        administrateur = msg.sender; // L'expditeur devient l'administrateur\r\n    }\r\n\r\n    // Fonction permettant  l'administrateur de frapper de nouveaux tokens\r\n    function frapper(address destinataire, uint256 montant) external {\r\n        require(msg.sender == administrateur, \"Seul ladministrateur peut frapper des tokens.\");\r\n        _mint(destinataire, montant);\r\n    }\r\n}",
  "sourcePath": "C:\\Users\\KAM Samy\\ProjetDeListing\\contracts\\Monnaie.sol",
  "compiler": {
    "name": "solc",
    "version": "0.8.21+commit.d9974bed.Emscripten.clang"
  },
  "schemaVersion": "3.4.16",
  "updatedAt": "2024-09-16T10:14:13.655Z",
  "networkType": "ethereum",
  "devdoc": {
    "errors": {
      "ERC20InsufficientAllowance(address,uint256,uint256)": [
        {
          "details": "Indicates a failure with the `spender`s `allowance`. Used in transfers.",
          "params": {
            "allowance": "Amount of tokens a `spender` is allowed to operate with.",
            "needed": "Minimum amount required to perform a transfer.",
            "spender": "Address that may be allowed to operate on tokens without being their owner."
          }
        }
      ],
      "ERC20InsufficientBalance(address,uint256,uint256)": [
        {
          "details": "Indicates an error related to the current `balance` of a `sender`. Used in transfers.",
          "params": {
            "balance": "Current balance for the interacting account.",
            "needed": "Minimum amount required to perform a transfer.",
            "sender": "Address whose tokens are being transferred."
          }
        }
      ],
      "ERC20InvalidApprover(address)": [
        {
          "details": "Indicates a failure with the `approver` of a token to be approved. Used in approvals.",
          "params": {
            "approver": "Address initiating an approval operation."
          }
        }
      ],
      "ERC20InvalidReceiver(address)": [
        {
          "details": "Indicates a failure with the token `receiver`. Used in transfers.",
          "params": {
            "receiver": "Address to which tokens are being transferred."
          }
        }
      ],
      "ERC20InvalidSender(address)": [
        {
          "details": "Indicates a failure with the token `sender`. Used in transfers.",
          "params": {
            "sender": "Address whose tokens are being transferred."
          }
        }
      ],
      "ERC20InvalidSpender(address)": [
        {
          "details": "Indicates a failure with the `spender` to be approved. Used in approvals.",
          "params": {
            "spender": "Address that may be allowed to operate on tokens without being their owner."
          }
        }
      ]
    },
    "events": {
      "Approval(address,address,uint256)": {
        "details": "Emitted when the allowance of a `spender` for an `owner` is set by a call to {approve}. `value` is the new allowance."
      },
      "Transfer(address,address,uint256)": {
        "details": "Emitted when `value` tokens are moved from one account (`from`) to another (`to`). Note that `value` may be zero."
      }
    },
    "kind": "dev",
    "methods": {
      "allowance(address,address)": {
        "details": "See {IERC20-allowance}."
      },
      "approve(address,uint256)": {
        "details": "See {IERC20-approve}. NOTE: If `value` is the maximum `uint256`, the allowance is not updated on `transferFrom`. This is semantically equivalent to an infinite approval. Requirements: - `spender` cannot be the zero address."
      },
      "balanceOf(address)": {
        "details": "See {IERC20-balanceOf}."
      },
      "decimals()": {
        "details": "Returns the number of decimals used to get its user representation. For example, if `decimals` equals `2`, a balance of `505` tokens should be displayed to a user as `5.05` (`505 / 10 ** 2`). Tokens usually opt for a value of 18, imitating the relationship between Ether and Wei. This is the default value returned by this function, unless it's overridden. NOTE: This information is only used for _display_ purposes: it in no way affects any of the arithmetic of the contract, including {IERC20-balanceOf} and {IERC20-transfer}."
      },
      "name()": {
        "details": "Returns the name of the token."
      },
      "symbol()": {
        "details": "Returns the symbol of the token, usually a shorter version of the name."
      },
      "totalSupply()": {
        "details": "See {IERC20-totalSupply}."
      },
      "transfer(address,uint256)": {
        "details": "See {IERC20-transfer}. Requirements: - `to` cannot be the zero address. - the caller must have a balance of at least `value`."
      },
      "transferFrom(address,address,uint256)": {
        "details": "See {IERC20-transferFrom}. Emits an {Approval} event indicating the updated allowance. This is not required by the EIP. See the note at the beginning of {ERC20}. NOTE: Does not update the allowance if the current allowance is the maximum `uint256`. Requirements: - `from` and `to` cannot be the zero address. - `from` must have a balance of at least `value`. - the caller must have allowance for ``from``'s tokens of at least `value`."
      }
    },
    "version": 1
  },
  "userdoc": {
    "kind": "user",
    "methods": {},
    "version": 1
  }
}