{
	"contracts/VotingContracts.sol": {
		"ContratDeVote": {
			"abi": [
				{
					"inputs": [
						{
							"internalType": "uint256",
							"name": "_votesRequis",
							"type": "uint256"
						},
						{
							"internalType": "address",
							"name": "_adresseMonnaie",
							"type": "address"
						}
					],
					"stateMutability": "nonpayable",
					"type": "constructor"
				},
				{
					"inputs": [],
					"name": "administrateur",
					"outputs": [
						{
							"internalType": "address",
							"name": "",
							"type": "address"
						}
					],
					"stateMutability": "view",
					"type": "function"
				},
				{
					"inputs": [],
					"name": "adresseMonnaie",
					"outputs": [
						{
							"internalType": "address",
							"name": "",
							"type": "address"
						}
					],
					"stateMutability": "view",
					"type": "function"
				},
				{
					"inputs": [],
					"name": "projetReussi",
					"outputs": [
						{
							"internalType": "bool",
							"name": "",
							"type": "bool"
						}
					],
					"stateMutability": "view",
					"type": "function"
				},
				{
					"inputs": [],
					"name": "remboursement",
					"outputs": [],
					"stateMutability": "nonpayable",
					"type": "function"
				},
				{
					"inputs": [],
					"name": "totalVotes",
					"outputs": [
						{
							"internalType": "uint256",
							"name": "",
							"type": "uint256"
						}
					],
					"stateMutability": "view",
					"type": "function"
				},
				{
					"inputs": [
						{
							"internalType": "uint256",
							"name": "montant",
							"type": "uint256"
						}
					],
					"name": "voter",
					"outputs": [],
					"stateMutability": "nonpayable",
					"type": "function"
				},
				{
					"inputs": [
						{
							"internalType": "address",
							"name": "",
							"type": "address"
						}
					],
					"name": "votes",
					"outputs": [
						{
							"internalType": "uint256",
							"name": "",
							"type": "uint256"
						}
					],
					"stateMutability": "view",
					"type": "function"
				},
				{
					"inputs": [],
					"name": "votesRequis",
					"outputs": [
						{
							"internalType": "uint256",
							"name": "",
							"type": "uint256"
						}
					],
					"stateMutability": "view",
					"type": "function"
				}
			],
			"devdoc": {
				"kind": "dev",
				"methods": {},
				"version": 1
			},
			"evm": {
				"assembly": "    /* \"contracts/VotingContracts.sol\":271:1491  contract ContratDeVote {... */\n  mstore(0x40, 0x80)\n    /* \"contracts/VotingContracts.sol\":520:736  constructor(uint256 _votesRequis, address _adresseMonnaie) {... */\n  callvalue\n  dup1\n  iszero\n  tag_1\n  jumpi\n  0x00\n  dup1\n  revert\ntag_1:\n  pop\n  mload(0x40)\n  sub(codesize, bytecodeSize)\n  dup1\n  bytecodeSize\n  dup4\n  codecopy\n  dup2\n  dup2\n  add\n  0x40\n  mstore\n  dup2\n  add\n  swap1\n  tag_2\n  swap2\n  swap1\n  tag_3\n  jump\t// in\ntag_2:\n    /* \"contracts/VotingContracts.sol\":607:617  msg.sender */\n  caller\n    /* \"contracts/VotingContracts.sol\":590:604  administrateur */\n  0x00\n  dup1\n    /* \"contracts/VotingContracts.sol\":590:617  administrateur = msg.sender */\n  0x0100\n  exp\n  dup2\n  sload\n  dup2\n  0xffffffffffffffffffffffffffffffffffffffff\n  mul\n  not\n  and\n  swap1\n  dup4\n  0xffffffffffffffffffffffffffffffffffffffff\n  and\n  mul\n  or\n  swap1\n  sstore\n  pop\n    /* \"contracts/VotingContracts.sol\":642:654  _votesRequis */\n  dup2\n    /* \"contracts/VotingContracts.sol\":628:639  votesRequis */\n  0x02\n    /* \"contracts/VotingContracts.sol\":628:654  votesRequis = _votesRequis */\n  dup2\n  swap1\n  sstore\n  pop\n    /* \"contracts/VotingContracts.sol\":682:697  _adresseMonnaie */\n  dup1\n    /* \"contracts/VotingContracts.sol\":665:679  adresseMonnaie */\n  0x03\n  0x00\n    /* \"contracts/VotingContracts.sol\":665:697  adresseMonnaie = _adresseMonnaie */\n  0x0100\n  exp\n  dup2\n  sload\n  dup2\n  0xffffffffffffffffffffffffffffffffffffffff\n  mul\n  not\n  and\n  swap1\n  dup4\n  0xffffffffffffffffffffffffffffffffffffffff\n  and\n  mul\n  or\n  swap1\n  sstore\n  pop\n    /* \"contracts/VotingContracts.sol\":723:728  false */\n  0x00\n    /* \"contracts/VotingContracts.sol\":708:720  projetReussi */\n  0x05\n  0x00\n    /* \"contracts/VotingContracts.sol\":708:728  projetReussi = false */\n  0x0100\n  exp\n  dup2\n  sload\n  dup2\n  0xff\n  mul\n  not\n  and\n  swap1\n  dup4\n  iszero\n  iszero\n  mul\n  or\n  swap1\n  sstore\n  pop\n    /* \"contracts/VotingContracts.sol\":520:736  constructor(uint256 _votesRequis, address _adresseMonnaie) {... */\n  pop\n  pop\n    /* \"contracts/VotingContracts.sol\":271:1491  contract ContratDeVote {... */\n  jump(tag_6)\n    /* \"#utility.yul\":88:205   */\ntag_8:\n    /* \"#utility.yul\":197:198   */\n  0x00\n    /* \"#utility.yul\":194:195   */\n  dup1\n    /* \"#utility.yul\":187:199   */\n  revert\n    /* \"#utility.yul\":334:411   */\ntag_10:\n    /* \"#utility.yul\":371:378   */\n  0x00\n    /* \"#utility.yul\":400:405   */\n  dup2\n    /* \"#utility.yul\":389:405   */\n  swap1\n  pop\n    /* \"#utility.yul\":334:411   */\n  swap2\n  swap1\n  pop\n  jump\t// out\n    /* \"#utility.yul\":417:539   */\ntag_11:\n    /* \"#utility.yul\":490:514   */\n  tag_23\n    /* \"#utility.yul\":508:513   */\n  dup2\n    /* \"#utility.yul\":490:514   */\n  tag_10\n  jump\t// in\ntag_23:\n    /* \"#utility.yul\":483:488   */\n  dup2\n    /* \"#utility.yul\":480:515   */\n  eq\n    /* \"#utility.yul\":470:533   */\n  tag_24\n  jumpi\n    /* \"#utility.yul\":529:530   */\n  0x00\n    /* \"#utility.yul\":526:527   */\n  dup1\n    /* \"#utility.yul\":519:531   */\n  revert\n    /* \"#utility.yul\":470:533   */\ntag_24:\n    /* \"#utility.yul\":417:539   */\n  pop\n  jump\t// out\n    /* \"#utility.yul\":545:688   */\ntag_12:\n    /* \"#utility.yul\":602:607   */\n  0x00\n    /* \"#utility.yul\":633:639   */\n  dup2\n    /* \"#utility.yul\":627:640   */\n  mload\n    /* \"#utility.yul\":618:640   */\n  swap1\n  pop\n    /* \"#utility.yul\":649:682   */\n  tag_26\n    /* \"#utility.yul\":676:681   */\n  dup2\n    /* \"#utility.yul\":649:682   */\n  tag_11\n  jump\t// in\ntag_26:\n    /* \"#utility.yul\":545:688   */\n  swap3\n  swap2\n  pop\n  pop\n  jump\t// out\n    /* \"#utility.yul\":694:820   */\ntag_13:\n    /* \"#utility.yul\":731:738   */\n  0x00\n    /* \"#utility.yul\":771:813   */\n  0xffffffffffffffffffffffffffffffffffffffff\n    /* \"#utility.yul\":764:769   */\n  dup3\n    /* \"#utility.yul\":760:814   */\n  and\n    /* \"#utility.yul\":749:814   */\n  swap1\n  pop\n    /* \"#utility.yul\":694:820   */\n  swap2\n  swap1\n  pop\n  jump\t// out\n    /* \"#utility.yul\":826:922   */\ntag_14:\n    /* \"#utility.yul\":863:870   */\n  0x00\n    /* \"#utility.yul\":892:916   */\n  tag_29\n    /* \"#utility.yul\":910:915   */\n  dup3\n    /* \"#utility.yul\":892:916   */\n  tag_13\n  jump\t// in\ntag_29:\n    /* \"#utility.yul\":881:916   */\n  swap1\n  pop\n    /* \"#utility.yul\":826:922   */\n  swap2\n  swap1\n  pop\n  jump\t// out\n    /* \"#utility.yul\":928:1050   */\ntag_15:\n    /* \"#utility.yul\":1001:1025   */\n  tag_31\n    /* \"#utility.yul\":1019:1024   */\n  dup2\n    /* \"#utility.yul\":1001:1025   */\n  tag_14\n  jump\t// in\ntag_31:\n    /* \"#utility.yul\":994:999   */\n  dup2\n    /* \"#utility.yul\":991:1026   */\n  eq\n    /* \"#utility.yul\":981:1044   */\n  tag_32\n  jumpi\n    /* \"#utility.yul\":1040:1041   */\n  0x00\n    /* \"#utility.yul\":1037:1038   */\n  dup1\n    /* \"#utility.yul\":1030:1042   */\n  revert\n    /* \"#utility.yul\":981:1044   */\ntag_32:\n    /* \"#utility.yul\":928:1050   */\n  pop\n  jump\t// out\n    /* \"#utility.yul\":1056:1199   */\ntag_16:\n    /* \"#utility.yul\":1113:1118   */\n  0x00\n    /* \"#utility.yul\":1144:1150   */\n  dup2\n    /* \"#utility.yul\":1138:1151   */\n  mload\n    /* \"#utility.yul\":1129:1151   */\n  swap1\n  pop\n    /* \"#utility.yul\":1160:1193   */\n  tag_34\n    /* \"#utility.yul\":1187:1192   */\n  dup2\n    /* \"#utility.yul\":1160:1193   */\n  tag_15\n  jump\t// in\ntag_34:\n    /* \"#utility.yul\":1056:1199   */\n  swap3\n  swap2\n  pop\n  pop\n  jump\t// out\n    /* \"#utility.yul\":1205:1712   */\ntag_3:\n    /* \"#utility.yul\":1284:1290   */\n  0x00\n    /* \"#utility.yul\":1292:1298   */\n  dup1\n    /* \"#utility.yul\":1341:1343   */\n  0x40\n    /* \"#utility.yul\":1329:1338   */\n  dup4\n    /* \"#utility.yul\":1320:1327   */\n  dup6\n    /* \"#utility.yul\":1316:1339   */\n  sub\n    /* \"#utility.yul\":1312:1344   */\n  slt\n    /* \"#utility.yul\":1309:1428   */\n  iszero\n  tag_36\n  jumpi\n    /* \"#utility.yul\":1347:1426   */\n  tag_37\n  tag_8\n  jump\t// in\ntag_37:\n    /* \"#utility.yul\":1309:1428   */\ntag_36:\n    /* \"#utility.yul\":1467:1468   */\n  0x00\n    /* \"#utility.yul\":1492:1556   */\n  tag_38\n    /* \"#utility.yul\":1548:1555   */\n  dup6\n    /* \"#utility.yul\":1539:1545   */\n  dup3\n    /* \"#utility.yul\":1528:1537   */\n  dup7\n    /* \"#utility.yul\":1524:1546   */\n  add\n    /* \"#utility.yul\":1492:1556   */\n  tag_12\n  jump\t// in\ntag_38:\n    /* \"#utility.yul\":1482:1556   */\n  swap3\n  pop\n    /* \"#utility.yul\":1438:1566   */\n  pop\n    /* \"#utility.yul\":1605:1607   */\n  0x20\n    /* \"#utility.yul\":1631:1695   */\n  tag_39\n    /* \"#utility.yul\":1687:1694   */\n  dup6\n    /* \"#utility.yul\":1678:1684   */\n  dup3\n    /* \"#utility.yul\":1667:1676   */\n  dup7\n    /* \"#utility.yul\":1663:1685   */\n  add\n    /* \"#utility.yul\":1631:1695   */\n  tag_16\n  jump\t// in\ntag_39:\n    /* \"#utility.yul\":1621:1695   */\n  swap2\n  pop\n    /* \"#utility.yul\":1576:1705   */\n  pop\n    /* \"#utility.yul\":1205:1712   */\n  swap3\n  pop\n  swap3\n  swap1\n  pop\n  jump\t// out\n    /* \"contracts/VotingContracts.sol\":271:1491  contract ContratDeVote {... */\ntag_6:\n  dataSize(sub_0)\n  dup1\n  dataOffset(sub_0)\n  0x00\n  codecopy\n  0x00\n  return\nstop\n\nsub_0: assembly {\n        /* \"contracts/VotingContracts.sol\":271:1491  contract ContratDeVote {... */\n      mstore(0x40, 0x80)\n      callvalue\n      dup1\n      iszero\n      tag_1\n      jumpi\n      0x00\n      dup1\n      revert\n    tag_1:\n      pop\n      jumpi(tag_2, lt(calldatasize, 0x04))\n      shr(0xe0, calldataload(0x00))\n      dup1\n      0xd64cb352\n      gt\n      tag_11\n      jumpi\n      dup1\n      0xd64cb352\n      eq\n      tag_7\n      jumpi\n      dup1\n      0xd6909930\n      eq\n      tag_8\n      jumpi\n      dup1\n      0xd8bff5a5\n      eq\n      tag_9\n      jumpi\n      dup1\n      0xfbda846a\n      eq\n      tag_10\n      jumpi\n      jump(tag_2)\n    tag_11:\n      dup1\n      0x0d15fd77\n      eq\n      tag_3\n      jumpi\n      dup1\n      0x1b2655c9\n      eq\n      tag_4\n      jumpi\n      dup1\n      0xa0ce7b41\n      eq\n      tag_5\n      jumpi\n      dup1\n      0xab8ed1ba\n      eq\n      tag_6\n      jumpi\n    tag_2:\n      0x00\n      dup1\n      revert\n        /* \"contracts/VotingContracts.sol\":337:362  uint256 public totalVotes */\n    tag_3:\n      tag_12\n      tag_13\n      jump\t// in\n    tag_12:\n      mload(0x40)\n      tag_14\n      swap2\n      swap1\n      tag_15\n      jump\t// in\n    tag_14:\n      mload(0x40)\n      dup1\n      swap2\n      sub\n      swap1\n      return\n        /* \"contracts/VotingContracts.sol\":487:511  bool public projetReussi */\n    tag_4:\n      tag_16\n      tag_17\n      jump\t// in\n    tag_16:\n      mload(0x40)\n      tag_18\n      swap2\n      swap1\n      tag_19\n      jump\t// in\n    tag_18:\n      mload(0x40)\n      dup1\n      swap2\n      sub\n      swap1\n      return\n        /* \"contracts/VotingContracts.sol\":301:330  address public administrateur */\n    tag_5:\n      tag_20\n      tag_21\n      jump\t// in\n    tag_20:\n      mload(0x40)\n      tag_22\n      swap2\n      swap1\n      tag_23\n      jump\t// in\n    tag_22:\n      mload(0x40)\n      dup1\n      swap2\n      sub\n      swap1\n      return\n        /* \"contracts/VotingContracts.sol\":744:1126  function voter(uint256 montant) external {... */\n    tag_6:\n      tag_24\n      0x04\n      dup1\n      calldatasize\n      sub\n      dup2\n      add\n      swap1\n      tag_25\n      swap2\n      swap1\n      tag_26\n      jump\t// in\n    tag_25:\n      tag_27\n      jump\t// in\n    tag_24:\n      stop\n        /* \"contracts/VotingContracts.sol\":369:395  uint256 public votesRequis */\n    tag_7:\n      tag_28\n      tag_29\n      jump\t// in\n    tag_28:\n      mload(0x40)\n      tag_30\n      swap2\n      swap1\n      tag_15\n      jump\t// in\n    tag_30:\n      mload(0x40)\n      dup1\n      swap2\n      sub\n      swap1\n      return\n        /* \"contracts/VotingContracts.sol\":1134:1488  function remboursement() external {... */\n    tag_8:\n      tag_31\n      tag_32\n      jump\t// in\n    tag_31:\n      stop\n        /* \"contracts/VotingContracts.sol\":440:480  mapping(address => uint256) public votes */\n    tag_9:\n      tag_33\n      0x04\n      dup1\n      calldatasize\n      sub\n      dup2\n      add\n      swap1\n      tag_34\n      swap2\n      swap1\n      tag_35\n      jump\t// in\n    tag_34:\n      tag_36\n      jump\t// in\n    tag_33:\n      mload(0x40)\n      tag_37\n      swap2\n      swap1\n      tag_15\n      jump\t// in\n    tag_37:\n      mload(0x40)\n      dup1\n      swap2\n      sub\n      swap1\n      return\n        /* \"contracts/VotingContracts.sol\":402:431  address public adresseMonnaie */\n    tag_10:\n      tag_38\n      tag_39\n      jump\t// in\n    tag_38:\n      mload(0x40)\n      tag_40\n      swap2\n      swap1\n      tag_23\n      jump\t// in\n    tag_40:\n      mload(0x40)\n      dup1\n      swap2\n      sub\n      swap1\n      return\n        /* \"contracts/VotingContracts.sol\":337:362  uint256 public totalVotes */\n    tag_13:\n      sload(0x01)\n      dup2\n      jump\t// out\n        /* \"contracts/VotingContracts.sol\":487:511  bool public projetReussi */\n    tag_17:\n      0x05\n      0x00\n      swap1\n      sload\n      swap1\n      0x0100\n      exp\n      swap1\n      div\n      0xff\n      and\n      dup2\n      jump\t// out\n        /* \"contracts/VotingContracts.sol\":301:330  address public administrateur */\n    tag_21:\n      0x00\n      dup1\n      sload\n      swap1\n      0x0100\n      exp\n      swap1\n      div\n      0xffffffffffffffffffffffffffffffffffffffff\n      and\n      dup2\n      jump\t// out\n        /* \"contracts/VotingContracts.sol\":744:1126  function voter(uint256 montant) external {... */\n    tag_27:\n        /* \"contracts/VotingContracts.sol\":814:815  0 */\n      0x00\n        /* \"contracts/VotingContracts.sol\":804:811  montant */\n      dup2\n        /* \"contracts/VotingContracts.sol\":804:815  montant > 0 */\n      gt\n        /* \"contracts/VotingContracts.sol\":796:872  require(montant > 0, \"Vous devez voter avec un montant positif de monnaies\") */\n      tag_42\n      jumpi\n      mload(0x40)\n      0x08c379a000000000000000000000000000000000000000000000000000000000\n      dup2\n      mstore\n      0x04\n      add\n      tag_43\n      swap1\n      tag_44\n      jump\t// in\n    tag_43:\n      mload(0x40)\n      dup1\n      swap2\n      sub\n      swap1\n      revert\n    tag_42:\n        /* \"contracts/VotingContracts.sol\":892:906  adresseMonnaie */\n      0x03\n      0x00\n      swap1\n      sload\n      swap1\n      0x0100\n      exp\n      swap1\n      div\n      0xffffffffffffffffffffffffffffffffffffffff\n      and\n        /* \"contracts/VotingContracts.sol\":885:920  IERC20(adresseMonnaie).transferFrom */\n      0xffffffffffffffffffffffffffffffffffffffff\n      and\n      0x23b872dd\n        /* \"contracts/VotingContracts.sol\":921:931  msg.sender */\n      caller\n        /* \"contracts/VotingContracts.sol\":941:945  this */\n      address\n        /* \"contracts/VotingContracts.sol\":948:955  montant */\n      dup5\n        /* \"contracts/VotingContracts.sol\":885:956  IERC20(adresseMonnaie).transferFrom(msg.sender, address(this), montant) */\n      mload(0x40)\n      dup5\n      0xffffffff\n      and\n      0xe0\n      shl\n      dup2\n      mstore\n      0x04\n      add\n      tag_45\n      swap4\n      swap3\n      swap2\n      swap1\n      tag_46\n      jump\t// in\n    tag_45:\n      0x20\n      mload(0x40)\n      dup1\n      dup4\n      sub\n      dup2\n      0x00\n      dup8\n      gas\n      call\n      iszero\n      dup1\n      iszero\n      tag_48\n      jumpi\n      returndatasize\n      0x00\n      dup1\n      returndatacopy\n      revert(0x00, returndatasize)\n    tag_48:\n      pop\n      pop\n      pop\n      pop\n      mload(0x40)\n      returndatasize\n      not(0x1f)\n      0x1f\n      dup3\n      add\n      and\n      dup3\n      add\n      dup1\n      0x40\n      mstore\n      pop\n      dup2\n      add\n      swap1\n      tag_49\n      swap2\n      swap1\n      tag_50\n      jump\t// in\n    tag_49:\n      pop\n        /* \"contracts/VotingContracts.sol\":990:997  montant */\n      dup1\n        /* \"contracts/VotingContracts.sol\":969:974  votes */\n      0x04\n        /* \"contracts/VotingContracts.sol\":969:986  votes[msg.sender] */\n      0x00\n        /* \"contracts/VotingContracts.sol\":975:985  msg.sender */\n      caller\n        /* \"contracts/VotingContracts.sol\":969:986  votes[msg.sender] */\n      0xffffffffffffffffffffffffffffffffffffffff\n      and\n      0xffffffffffffffffffffffffffffffffffffffff\n      and\n      dup2\n      mstore\n      0x20\n      add\n      swap1\n      dup2\n      mstore\n      0x20\n      add\n      0x00\n      keccak256\n      0x00\n        /* \"contracts/VotingContracts.sol\":969:997  votes[msg.sender] += montant */\n      dup3\n      dup3\n      sload\n      tag_51\n      swap2\n      swap1\n      tag_52\n      jump\t// in\n    tag_51:\n      swap3\n      pop\n      pop\n      dup2\n      swap1\n      sstore\n      pop\n        /* \"contracts/VotingContracts.sol\":1022:1029  montant */\n      dup1\n        /* \"contracts/VotingContracts.sol\":1008:1018  totalVotes */\n      0x01\n      0x00\n        /* \"contracts/VotingContracts.sol\":1008:1029  totalVotes += montant */\n      dup3\n      dup3\n      sload\n      tag_53\n      swap2\n      swap1\n      tag_52\n      jump\t// in\n    tag_53:\n      swap3\n      pop\n      pop\n      dup2\n      swap1\n      sstore\n      pop\n        /* \"contracts/VotingContracts.sol\":1060:1071  votesRequis */\n      sload(0x02)\n        /* \"contracts/VotingContracts.sol\":1046:1056  totalVotes */\n      sload(0x01)\n        /* \"contracts/VotingContracts.sol\":1046:1071  totalVotes >= votesRequis */\n      lt\n        /* \"contracts/VotingContracts.sol\":1042:1119  if (totalVotes >= votesRequis) {... */\n      tag_54\n      jumpi\n        /* \"contracts/VotingContracts.sol\":1103:1107  true */\n      0x01\n        /* \"contracts/VotingContracts.sol\":1088:1100  projetReussi */\n      0x05\n      0x00\n        /* \"contracts/VotingContracts.sol\":1088:1107  projetReussi = true */\n      0x0100\n      exp\n      dup2\n      sload\n      dup2\n      0xff\n      mul\n      not\n      and\n      swap1\n      dup4\n      iszero\n      iszero\n      mul\n      or\n      swap1\n      sstore\n      pop\n        /* \"contracts/VotingContracts.sol\":1042:1119  if (totalVotes >= votesRequis) {... */\n    tag_54:\n        /* \"contracts/VotingContracts.sol\":744:1126  function voter(uint256 montant) external {... */\n      pop\n      jump\t// out\n        /* \"contracts/VotingContracts.sol\":369:395  uint256 public votesRequis */\n    tag_29:\n      sload(0x02)\n      dup2\n      jump\t// out\n        /* \"contracts/VotingContracts.sol\":1134:1488  function remboursement() external {... */\n    tag_32:\n        /* \"contracts/VotingContracts.sol\":1188:1200  projetReussi */\n      0x05\n      0x00\n      swap1\n      sload\n      swap1\n      0x0100\n      exp\n      swap1\n      div\n      0xff\n      and\n        /* \"contracts/VotingContracts.sol\":1187:1200  !projetReussi */\n      iszero\n        /* \"contracts/VotingContracts.sol\":1179:1255  require(!projetReussi, \"Le projet est reussi, aucun remboursement possible\") */\n      tag_56\n      jumpi\n      mload(0x40)\n      0x08c379a000000000000000000000000000000000000000000000000000000000\n      dup2\n      mstore\n      0x04\n      add\n      tag_57\n      swap1\n      tag_58\n      jump\t// in\n    tag_57:\n      mload(0x40)\n      dup1\n      swap2\n      sub\n      swap1\n      revert\n    tag_56:\n        /* \"contracts/VotingContracts.sol\":1294:1295  0 */\n      0x00\n        /* \"contracts/VotingContracts.sol\":1274:1279  votes */\n      0x04\n        /* \"contracts/VotingContracts.sol\":1274:1291  votes[msg.sender] */\n      0x00\n        /* \"contracts/VotingContracts.sol\":1280:1290  msg.sender */\n      caller\n        /* \"contracts/VotingContracts.sol\":1274:1291  votes[msg.sender] */\n      0xffffffffffffffffffffffffffffffffffffffff\n      and\n      0xffffffffffffffffffffffffffffffffffffffff\n      and\n      dup2\n      mstore\n      0x20\n      add\n      swap1\n      dup2\n      mstore\n      0x20\n      add\n      0x00\n      keccak256\n      sload\n        /* \"contracts/VotingContracts.sol\":1274:1295  votes[msg.sender] > 0 */\n      gt\n        /* \"contracts/VotingContracts.sol\":1266:1323  require(votes[msg.sender] > 0, \"Aucun vote a rembourser\") */\n      tag_59\n      jumpi\n      mload(0x40)\n      0x08c379a000000000000000000000000000000000000000000000000000000000\n      dup2\n      mstore\n      0x04\n      add\n      tag_60\n      swap1\n      tag_61\n      jump\t// in\n    tag_60:\n      mload(0x40)\n      dup1\n      swap2\n      sub\n      swap1\n      revert\n    tag_59:\n        /* \"contracts/VotingContracts.sol\":1336:1357  uint256 montantVotant */\n      0x00\n        /* \"contracts/VotingContracts.sol\":1360:1365  votes */\n      0x04\n        /* \"contracts/VotingContracts.sol\":1360:1377  votes[msg.sender] */\n      0x00\n        /* \"contracts/VotingContracts.sol\":1366:1376  msg.sender */\n      caller\n        /* \"contracts/VotingContracts.sol\":1360:1377  votes[msg.sender] */\n      0xffffffffffffffffffffffffffffffffffffffff\n      and\n      0xffffffffffffffffffffffffffffffffffffffff\n      and\n      dup2\n      mstore\n      0x20\n      add\n      swap1\n      dup2\n      mstore\n      0x20\n      add\n      0x00\n      keccak256\n      sload\n        /* \"contracts/VotingContracts.sol\":1336:1377  uint256 montantVotant = votes[msg.sender] */\n      swap1\n      pop\n        /* \"contracts/VotingContracts.sol\":1408:1409  0 */\n      0x00\n        /* \"contracts/VotingContracts.sol\":1388:1393  votes */\n      0x04\n        /* \"contracts/VotingContracts.sol\":1388:1405  votes[msg.sender] */\n      0x00\n        /* \"contracts/VotingContracts.sol\":1394:1404  msg.sender */\n      caller\n        /* \"contracts/VotingContracts.sol\":1388:1405  votes[msg.sender] */\n      0xffffffffffffffffffffffffffffffffffffffff\n      and\n      0xffffffffffffffffffffffffffffffffffffffff\n      and\n      dup2\n      mstore\n      0x20\n      add\n      swap1\n      dup2\n      mstore\n      0x20\n      add\n      0x00\n      keccak256\n        /* \"contracts/VotingContracts.sol\":1388:1409  votes[msg.sender] = 0 */\n      dup2\n      swap1\n      sstore\n      pop\n        /* \"contracts/VotingContracts.sol\":1429:1443  adresseMonnaie */\n      0x03\n      0x00\n      swap1\n      sload\n      swap1\n      0x0100\n      exp\n      swap1\n      div\n      0xffffffffffffffffffffffffffffffffffffffff\n      and\n        /* \"contracts/VotingContracts.sol\":1422:1453  IERC20(adresseMonnaie).transfer */\n      0xffffffffffffffffffffffffffffffffffffffff\n      and\n      0xa9059cbb\n        /* \"contracts/VotingContracts.sol\":1454:1464  msg.sender */\n      caller\n        /* \"contracts/VotingContracts.sol\":1466:1479  montantVotant */\n      dup4\n        /* \"contracts/VotingContracts.sol\":1422:1480  IERC20(adresseMonnaie).transfer(msg.sender, montantVotant) */\n      mload(0x40)\n      dup4\n      0xffffffff\n      and\n      0xe0\n      shl\n      dup2\n      mstore\n      0x04\n      add\n      tag_62\n      swap3\n      swap2\n      swap1\n      tag_63\n      jump\t// in\n    tag_62:\n      0x20\n      mload(0x40)\n      dup1\n      dup4\n      sub\n      dup2\n      0x00\n      dup8\n      gas\n      call\n      iszero\n      dup1\n      iszero\n      tag_65\n      jumpi\n      returndatasize\n      0x00\n      dup1\n      returndatacopy\n      revert(0x00, returndatasize)\n    tag_65:\n      pop\n      pop\n      pop\n      pop\n      mload(0x40)\n      returndatasize\n      not(0x1f)\n      0x1f\n      dup3\n      add\n      and\n      dup3\n      add\n      dup1\n      0x40\n      mstore\n      pop\n      dup2\n      add\n      swap1\n      tag_66\n      swap2\n      swap1\n      tag_50\n      jump\t// in\n    tag_66:\n      pop\n        /* \"contracts/VotingContracts.sol\":1168:1488  {... */\n      pop\n        /* \"contracts/VotingContracts.sol\":1134:1488  function remboursement() external {... */\n      jump\t// out\n        /* \"contracts/VotingContracts.sol\":440:480  mapping(address => uint256) public votes */\n    tag_36:\n      mstore(0x20, 0x04)\n      dup1\n      0x00\n      mstore\n      keccak256(0x00, 0x40)\n      0x00\n      swap2\n      pop\n      swap1\n      pop\n      sload\n      dup2\n      jump\t// out\n        /* \"contracts/VotingContracts.sol\":402:431  address public adresseMonnaie */\n    tag_39:\n      0x03\n      0x00\n      swap1\n      sload\n      swap1\n      0x0100\n      exp\n      swap1\n      div\n      0xffffffffffffffffffffffffffffffffffffffff\n      and\n      dup2\n      jump\t// out\n        /* \"#utility.yul\":7:84   */\n    tag_67:\n        /* \"#utility.yul\":44:51   */\n      0x00\n        /* \"#utility.yul\":73:78   */\n      dup2\n        /* \"#utility.yul\":62:78   */\n      swap1\n      pop\n        /* \"#utility.yul\":7:84   */\n      swap2\n      swap1\n      pop\n      jump\t// out\n        /* \"#utility.yul\":90:208   */\n    tag_68:\n        /* \"#utility.yul\":177:201   */\n      tag_94\n        /* \"#utility.yul\":195:200   */\n      dup2\n        /* \"#utility.yul\":177:201   */\n      tag_67\n      jump\t// in\n    tag_94:\n        /* \"#utility.yul\":172:175   */\n      dup3\n        /* \"#utility.yul\":165:202   */\n      mstore\n        /* \"#utility.yul\":90:208   */\n      pop\n      pop\n      jump\t// out\n        /* \"#utility.yul\":214:436   */\n    tag_15:\n        /* \"#utility.yul\":307:311   */\n      0x00\n        /* \"#utility.yul\":345:347   */\n      0x20\n        /* \"#utility.yul\":334:343   */\n      dup3\n        /* \"#utility.yul\":330:348   */\n      add\n        /* \"#utility.yul\":322:348   */\n      swap1\n      pop\n        /* \"#utility.yul\":358:429   */\n      tag_96\n        /* \"#utility.yul\":426:427   */\n      0x00\n        /* \"#utility.yul\":415:424   */\n      dup4\n        /* \"#utility.yul\":411:428   */\n      add\n        /* \"#utility.yul\":402:408   */\n      dup5\n        /* \"#utility.yul\":358:429   */\n      tag_68\n      jump\t// in\n    tag_96:\n        /* \"#utility.yul\":214:436   */\n      swap3\n      swap2\n      pop\n      pop\n      jump\t// out\n        /* \"#utility.yul\":442:532   */\n    tag_69:\n        /* \"#utility.yul\":476:483   */\n      0x00\n        /* \"#utility.yul\":519:524   */\n      dup2\n        /* \"#utility.yul\":512:525   */\n      iszero\n        /* \"#utility.yul\":505:526   */\n      iszero\n        /* \"#utility.yul\":494:526   */\n      swap1\n      pop\n        /* \"#utility.yul\":442:532   */\n      swap2\n      swap1\n      pop\n      jump\t// out\n        /* \"#utility.yul\":538:647   */\n    tag_70:\n        /* \"#utility.yul\":619:640   */\n      tag_99\n        /* \"#utility.yul\":634:639   */\n      dup2\n        /* \"#utility.yul\":619:640   */\n      tag_69\n      jump\t// in\n    tag_99:\n        /* \"#utility.yul\":614:617   */\n      dup3\n        /* \"#utility.yul\":607:641   */\n      mstore\n        /* \"#utility.yul\":538:647   */\n      pop\n      pop\n      jump\t// out\n        /* \"#utility.yul\":653:863   */\n    tag_19:\n        /* \"#utility.yul\":740:744   */\n      0x00\n        /* \"#utility.yul\":778:780   */\n      0x20\n        /* \"#utility.yul\":767:776   */\n      dup3\n        /* \"#utility.yul\":763:781   */\n      add\n        /* \"#utility.yul\":755:781   */\n      swap1\n      pop\n        /* \"#utility.yul\":791:856   */\n      tag_101\n        /* \"#utility.yul\":853:854   */\n      0x00\n        /* \"#utility.yul\":842:851   */\n      dup4\n        /* \"#utility.yul\":838:855   */\n      add\n        /* \"#utility.yul\":829:835   */\n      dup5\n        /* \"#utility.yul\":791:856   */\n      tag_70\n      jump\t// in\n    tag_101:\n        /* \"#utility.yul\":653:863   */\n      swap3\n      swap2\n      pop\n      pop\n      jump\t// out\n        /* \"#utility.yul\":869:995   */\n    tag_71:\n        /* \"#utility.yul\":906:913   */\n      0x00\n        /* \"#utility.yul\":946:988   */\n      0xffffffffffffffffffffffffffffffffffffffff\n        /* \"#utility.yul\":939:944   */\n      dup3\n        /* \"#utility.yul\":935:989   */\n      and\n        /* \"#utility.yul\":924:989   */\n      swap1\n      pop\n        /* \"#utility.yul\":869:995   */\n      swap2\n      swap1\n      pop\n      jump\t// out\n        /* \"#utility.yul\":1001:1097   */\n    tag_72:\n        /* \"#utility.yul\":1038:1045   */\n      0x00\n        /* \"#utility.yul\":1067:1091   */\n      tag_104\n        /* \"#utility.yul\":1085:1090   */\n      dup3\n        /* \"#utility.yul\":1067:1091   */\n      tag_71\n      jump\t// in\n    tag_104:\n        /* \"#utility.yul\":1056:1091   */\n      swap1\n      pop\n        /* \"#utility.yul\":1001:1097   */\n      swap2\n      swap1\n      pop\n      jump\t// out\n        /* \"#utility.yul\":1103:1221   */\n    tag_73:\n        /* \"#utility.yul\":1190:1214   */\n      tag_106\n        /* \"#utility.yul\":1208:1213   */\n      dup2\n        /* \"#utility.yul\":1190:1214   */\n      tag_72\n      jump\t// in\n    tag_106:\n        /* \"#utility.yul\":1185:1188   */\n      dup3\n        /* \"#utility.yul\":1178:1215   */\n      mstore\n        /* \"#utility.yul\":1103:1221   */\n      pop\n      pop\n      jump\t// out\n        /* \"#utility.yul\":1227:1449   */\n    tag_23:\n        /* \"#utility.yul\":1320:1324   */\n      0x00\n        /* \"#utility.yul\":1358:1360   */\n      0x20\n        /* \"#utility.yul\":1347:1356   */\n      dup3\n        /* \"#utility.yul\":1343:1361   */\n      add\n        /* \"#utility.yul\":1335:1361   */\n      swap1\n      pop\n        /* \"#utility.yul\":1371:1442   */\n      tag_108\n        /* \"#utility.yul\":1439:1440   */\n      0x00\n        /* \"#utility.yul\":1428:1437   */\n      dup4\n        /* \"#utility.yul\":1424:1441   */\n      add\n        /* \"#utility.yul\":1415:1421   */\n      dup5\n        /* \"#utility.yul\":1371:1442   */\n      tag_73\n      jump\t// in\n    tag_108:\n        /* \"#utility.yul\":1227:1449   */\n      swap3\n      swap2\n      pop\n      pop\n      jump\t// out\n        /* \"#utility.yul\":1536:1653   */\n    tag_75:\n        /* \"#utility.yul\":1645:1646   */\n      0x00\n        /* \"#utility.yul\":1642:1643   */\n      dup1\n        /* \"#utility.yul\":1635:1647   */\n      revert\n        /* \"#utility.yul\":1782:1904   */\n    tag_77:\n        /* \"#utility.yul\":1855:1879   */\n      tag_113\n        /* \"#utility.yul\":1873:1878   */\n      dup2\n        /* \"#utility.yul\":1855:1879   */\n      tag_67\n      jump\t// in\n    tag_113:\n        /* \"#utility.yul\":1848:1853   */\n      dup2\n        /* \"#utility.yul\":1845:1880   */\n      eq\n        /* \"#utility.yul\":1835:1898   */\n      tag_114\n      jumpi\n        /* \"#utility.yul\":1894:1895   */\n      0x00\n        /* \"#utility.yul\":1891:1892   */\n      dup1\n        /* \"#utility.yul\":1884:1896   */\n      revert\n        /* \"#utility.yul\":1835:1898   */\n    tag_114:\n        /* \"#utility.yul\":1782:1904   */\n      pop\n      jump\t// out\n        /* \"#utility.yul\":1910:2049   */\n    tag_78:\n        /* \"#utility.yul\":1956:1961   */\n      0x00\n        /* \"#utility.yul\":1994:2000   */\n      dup2\n        /* \"#utility.yul\":1981:2001   */\n      calldataload\n        /* \"#utility.yul\":1972:2001   */\n      swap1\n      pop\n        /* \"#utility.yul\":2010:2043   */\n      tag_116\n        /* \"#utility.yul\":2037:2042   */\n      dup2\n        /* \"#utility.yul\":2010:2043   */\n      tag_77\n      jump\t// in\n    tag_116:\n        /* \"#utility.yul\":1910:2049   */\n      swap3\n      swap2\n      pop\n      pop\n      jump\t// out\n        /* \"#utility.yul\":2055:2384   */\n    tag_26:\n        /* \"#utility.yul\":2114:2120   */\n      0x00\n        /* \"#utility.yul\":2163:2165   */\n      0x20\n        /* \"#utility.yul\":2151:2160   */\n      dup3\n        /* \"#utility.yul\":2142:2149   */\n      dup5\n        /* \"#utility.yul\":2138:2161   */\n      sub\n        /* \"#utility.yul\":2134:2166   */\n      slt\n        /* \"#utility.yul\":2131:2250   */\n      iszero\n      tag_118\n      jumpi\n        /* \"#utility.yul\":2169:2248   */\n      tag_119\n      tag_75\n      jump\t// in\n    tag_119:\n        /* \"#utility.yul\":2131:2250   */\n    tag_118:\n        /* \"#utility.yul\":2289:2290   */\n      0x00\n        /* \"#utility.yul\":2314:2367   */\n      tag_120\n        /* \"#utility.yul\":2359:2366   */\n      dup5\n        /* \"#utility.yul\":2350:2356   */\n      dup3\n        /* \"#utility.yul\":2339:2348   */\n      dup6\n        /* \"#utility.yul\":2335:2357   */\n      add\n        /* \"#utility.yul\":2314:2367   */\n      tag_78\n      jump\t// in\n    tag_120:\n        /* \"#utility.yul\":2304:2367   */\n      swap2\n      pop\n        /* \"#utility.yul\":2260:2377   */\n      pop\n        /* \"#utility.yul\":2055:2384   */\n      swap3\n      swap2\n      pop\n      pop\n      jump\t// out\n        /* \"#utility.yul\":2390:2512   */\n    tag_79:\n        /* \"#utility.yul\":2463:2487   */\n      tag_122\n        /* \"#utility.yul\":2481:2486   */\n      dup2\n        /* \"#utility.yul\":2463:2487   */\n      tag_72\n      jump\t// in\n    tag_122:\n        /* \"#utility.yul\":2456:2461   */\n      dup2\n        /* \"#utility.yul\":2453:2488   */\n      eq\n        /* \"#utility.yul\":2443:2506   */\n      tag_123\n      jumpi\n        /* \"#utility.yul\":2502:2503   */\n      0x00\n        /* \"#utility.yul\":2499:2500   */\n      dup1\n        /* \"#utility.yul\":2492:2504   */\n      revert\n        /* \"#utility.yul\":2443:2506   */\n    tag_123:\n        /* \"#utility.yul\":2390:2512   */\n      pop\n      jump\t// out\n        /* \"#utility.yul\":2518:2657   */\n    tag_80:\n        /* \"#utility.yul\":2564:2569   */\n      0x00\n        /* \"#utility.yul\":2602:2608   */\n      dup2\n        /* \"#utility.yul\":2589:2609   */\n      calldataload\n        /* \"#utility.yul\":2580:2609   */\n      swap1\n      pop\n        /* \"#utility.yul\":2618:2651   */\n      tag_125\n        /* \"#utility.yul\":2645:2650   */\n      dup2\n        /* \"#utility.yul\":2618:2651   */\n      tag_79\n      jump\t// in\n    tag_125:\n        /* \"#utility.yul\":2518:2657   */\n      swap3\n      swap2\n      pop\n      pop\n      jump\t// out\n        /* \"#utility.yul\":2663:2992   */\n    tag_35:\n        /* \"#utility.yul\":2722:2728   */\n      0x00\n        /* \"#utility.yul\":2771:2773   */\n      0x20\n        /* \"#utility.yul\":2759:2768   */\n      dup3\n        /* \"#utility.yul\":2750:2757   */\n      dup5\n        /* \"#utility.yul\":2746:2769   */\n      sub\n        /* \"#utility.yul\":2742:2774   */\n      slt\n        /* \"#utility.yul\":2739:2858   */\n      iszero\n      tag_127\n      jumpi\n        /* \"#utility.yul\":2777:2856   */\n      tag_128\n      tag_75\n      jump\t// in\n    tag_128:\n        /* \"#utility.yul\":2739:2858   */\n    tag_127:\n        /* \"#utility.yul\":2897:2898   */\n      0x00\n        /* \"#utility.yul\":2922:2975   */\n      tag_129\n        /* \"#utility.yul\":2967:2974   */\n      dup5\n        /* \"#utility.yul\":2958:2964   */\n      dup3\n        /* \"#utility.yul\":2947:2956   */\n      dup6\n        /* \"#utility.yul\":2943:2965   */\n      add\n        /* \"#utility.yul\":2922:2975   */\n      tag_80\n      jump\t// in\n    tag_129:\n        /* \"#utility.yul\":2912:2975   */\n      swap2\n      pop\n        /* \"#utility.yul\":2868:2985   */\n      pop\n        /* \"#utility.yul\":2663:2992   */\n      swap3\n      swap2\n      pop\n      pop\n      jump\t// out\n        /* \"#utility.yul\":2998:3167   */\n    tag_81:\n        /* \"#utility.yul\":3082:3093   */\n      0x00\n        /* \"#utility.yul\":3116:3122   */\n      dup3\n        /* \"#utility.yul\":3111:3114   */\n      dup3\n        /* \"#utility.yul\":3104:3123   */\n      mstore\n        /* \"#utility.yul\":3156:3160   */\n      0x20\n        /* \"#utility.yul\":3151:3154   */\n      dup3\n        /* \"#utility.yul\":3147:3161   */\n      add\n        /* \"#utility.yul\":3132:3161   */\n      swap1\n      pop\n        /* \"#utility.yul\":2998:3167   */\n      swap3\n      swap2\n      pop\n      pop\n      jump\t// out\n        /* \"#utility.yul\":3173:3412   */\n    tag_82:\n        /* \"#utility.yul\":3313:3347   */\n      0x566f757320646576657a20766f746572206176656320756e206d6f6e74616e74\n        /* \"#utility.yul\":3309:3310   */\n      0x00\n        /* \"#utility.yul\":3301:3307   */\n      dup3\n        /* \"#utility.yul\":3297:3311   */\n      add\n        /* \"#utility.yul\":3290:3348   */\n      mstore\n        /* \"#utility.yul\":3382:3404   */\n      0x20706f7369746966206465206d6f6e6e61696573000000000000000000000000\n        /* \"#utility.yul\":3377:3379   */\n      0x20\n        /* \"#utility.yul\":3369:3375   */\n      dup3\n        /* \"#utility.yul\":3365:3380   */\n      add\n        /* \"#utility.yul\":3358:3405   */\n      mstore\n        /* \"#utility.yul\":3173:3412   */\n      pop\n      jump\t// out\n        /* \"#utility.yul\":3418:3784   */\n    tag_83:\n        /* \"#utility.yul\":3560:3563   */\n      0x00\n        /* \"#utility.yul\":3581:3648   */\n      tag_133\n        /* \"#utility.yul\":3645:3647   */\n      0x34\n        /* \"#utility.yul\":3640:3643   */\n      dup4\n        /* \"#utility.yul\":3581:3648   */\n      tag_81\n      jump\t// in\n    tag_133:\n        /* \"#utility.yul\":3574:3648   */\n      swap2\n      pop\n        /* \"#utility.yul\":3657:3750   */\n      tag_134\n        /* \"#utility.yul\":3746:3749   */\n      dup3\n        /* \"#utility.yul\":3657:3750   */\n      tag_82\n      jump\t// in\n    tag_134:\n        /* \"#utility.yul\":3775:3777   */\n      0x40\n        /* \"#utility.yul\":3770:3773   */\n      dup3\n        /* \"#utility.yul\":3766:3778   */\n      add\n        /* \"#utility.yul\":3759:3778   */\n      swap1\n      pop\n        /* \"#utility.yul\":3418:3784   */\n      swap2\n      swap1\n      pop\n      jump\t// out\n        /* \"#utility.yul\":3790:4209   */\n    tag_44:\n        /* \"#utility.yul\":3956:3960   */\n      0x00\n        /* \"#utility.yul\":3994:3996   */\n      0x20\n        /* \"#utility.yul\":3983:3992   */\n      dup3\n        /* \"#utility.yul\":3979:3997   */\n      add\n        /* \"#utility.yul\":3971:3997   */\n      swap1\n      pop\n        /* \"#utility.yul\":4043:4052   */\n      dup2\n        /* \"#utility.yul\":4037:4041   */\n      dup2\n        /* \"#utility.yul\":4033:4053   */\n      sub\n        /* \"#utility.yul\":4029:4030   */\n      0x00\n        /* \"#utility.yul\":4018:4027   */\n      dup4\n        /* \"#utility.yul\":4014:4031   */\n      add\n        /* \"#utility.yul\":4007:4054   */\n      mstore\n        /* \"#utility.yul\":4071:4202   */\n      tag_136\n        /* \"#utility.yul\":4197:4201   */\n      dup2\n        /* \"#utility.yul\":4071:4202   */\n      tag_83\n      jump\t// in\n    tag_136:\n        /* \"#utility.yul\":4063:4202   */\n      swap1\n      pop\n        /* \"#utility.yul\":3790:4209   */\n      swap2\n      swap1\n      pop\n      jump\t// out\n        /* \"#utility.yul\":4215:4657   */\n    tag_46:\n        /* \"#utility.yul\":4364:4368   */\n      0x00\n        /* \"#utility.yul\":4402:4404   */\n      0x60\n        /* \"#utility.yul\":4391:4400   */\n      dup3\n        /* \"#utility.yul\":4387:4405   */\n      add\n        /* \"#utility.yul\":4379:4405   */\n      swap1\n      pop\n        /* \"#utility.yul\":4415:4486   */\n      tag_138\n        /* \"#utility.yul\":4483:4484   */\n      0x00\n        /* \"#utility.yul\":4472:4481   */\n      dup4\n        /* \"#utility.yul\":4468:4485   */\n      add\n        /* \"#utility.yul\":4459:4465   */\n      dup7\n        /* \"#utility.yul\":4415:4486   */\n      tag_73\n      jump\t// in\n    tag_138:\n        /* \"#utility.yul\":4496:4568   */\n      tag_139\n        /* \"#utility.yul\":4564:4566   */\n      0x20\n        /* \"#utility.yul\":4553:4562   */\n      dup4\n        /* \"#utility.yul\":4549:4567   */\n      add\n        /* \"#utility.yul\":4540:4546   */\n      dup6\n        /* \"#utility.yul\":4496:4568   */\n      tag_73\n      jump\t// in\n    tag_139:\n        /* \"#utility.yul\":4578:4650   */\n      tag_140\n        /* \"#utility.yul\":4646:4648   */\n      0x40\n        /* \"#utility.yul\":4635:4644   */\n      dup4\n        /* \"#utility.yul\":4631:4649   */\n      add\n        /* \"#utility.yul\":4622:4628   */\n      dup5\n        /* \"#utility.yul\":4578:4650   */\n      tag_68\n      jump\t// in\n    tag_140:\n        /* \"#utility.yul\":4215:4657   */\n      swap5\n      swap4\n      pop\n      pop\n      pop\n      pop\n      jump\t// out\n        /* \"#utility.yul\":4663:4779   */\n    tag_84:\n        /* \"#utility.yul\":4733:4754   */\n      tag_142\n        /* \"#utility.yul\":4748:4753   */\n      dup2\n        /* \"#utility.yul\":4733:4754   */\n      tag_69\n      jump\t// in\n    tag_142:\n        /* \"#utility.yul\":4726:4731   */\n      dup2\n        /* \"#utility.yul\":4723:4755   */\n      eq\n        /* \"#utility.yul\":4713:4773   */\n      tag_143\n      jumpi\n        /* \"#utility.yul\":4769:4770   */\n      0x00\n        /* \"#utility.yul\":4766:4767   */\n      dup1\n        /* \"#utility.yul\":4759:4771   */\n      revert\n        /* \"#utility.yul\":4713:4773   */\n    tag_143:\n        /* \"#utility.yul\":4663:4779   */\n      pop\n      jump\t// out\n        /* \"#utility.yul\":4785:4922   */\n    tag_85:\n        /* \"#utility.yul\":4839:4844   */\n      0x00\n        /* \"#utility.yul\":4870:4876   */\n      dup2\n        /* \"#utility.yul\":4864:4877   */\n      mload\n        /* \"#utility.yul\":4855:4877   */\n      swap1\n      pop\n        /* \"#utility.yul\":4886:4916   */\n      tag_145\n        /* \"#utility.yul\":4910:4915   */\n      dup2\n        /* \"#utility.yul\":4886:4916   */\n      tag_84\n      jump\t// in\n    tag_145:\n        /* \"#utility.yul\":4785:4922   */\n      swap3\n      swap2\n      pop\n      pop\n      jump\t// out\n        /* \"#utility.yul\":4928:5273   */\n    tag_50:\n        /* \"#utility.yul\":4995:5001   */\n      0x00\n        /* \"#utility.yul\":5044:5046   */\n      0x20\n        /* \"#utility.yul\":5032:5041   */\n      dup3\n        /* \"#utility.yul\":5023:5030   */\n      dup5\n        /* \"#utility.yul\":5019:5042   */\n      sub\n        /* \"#utility.yul\":5015:5047   */\n      slt\n        /* \"#utility.yul\":5012:5131   */\n      iszero\n      tag_147\n      jumpi\n        /* \"#utility.yul\":5050:5129   */\n      tag_148\n      tag_75\n      jump\t// in\n    tag_148:\n        /* \"#utility.yul\":5012:5131   */\n    tag_147:\n        /* \"#utility.yul\":5170:5171   */\n      0x00\n        /* \"#utility.yul\":5195:5256   */\n      tag_149\n        /* \"#utility.yul\":5248:5255   */\n      dup5\n        /* \"#utility.yul\":5239:5245   */\n      dup3\n        /* \"#utility.yul\":5228:5237   */\n      dup6\n        /* \"#utility.yul\":5224:5246   */\n      add\n        /* \"#utility.yul\":5195:5256   */\n      tag_85\n      jump\t// in\n    tag_149:\n        /* \"#utility.yul\":5185:5256   */\n      swap2\n      pop\n        /* \"#utility.yul\":5141:5266   */\n      pop\n        /* \"#utility.yul\":4928:5273   */\n      swap3\n      swap2\n      pop\n      pop\n      jump\t// out\n        /* \"#utility.yul\":5279:5459   */\n    tag_86:\n        /* \"#utility.yul\":5327:5404   */\n      0x4e487b7100000000000000000000000000000000000000000000000000000000\n        /* \"#utility.yul\":5324:5325   */\n      0x00\n        /* \"#utility.yul\":5317:5405   */\n      mstore\n        /* \"#utility.yul\":5424:5428   */\n      0x11\n        /* \"#utility.yul\":5421:5422   */\n      0x04\n        /* \"#utility.yul\":5414:5429   */\n      mstore\n        /* \"#utility.yul\":5448:5452   */\n      0x24\n        /* \"#utility.yul\":5445:5446   */\n      0x00\n        /* \"#utility.yul\":5438:5453   */\n      revert\n        /* \"#utility.yul\":5465:5656   */\n    tag_52:\n        /* \"#utility.yul\":5505:5508   */\n      0x00\n        /* \"#utility.yul\":5524:5544   */\n      tag_152\n        /* \"#utility.yul\":5542:5543   */\n      dup3\n        /* \"#utility.yul\":5524:5544   */\n      tag_67\n      jump\t// in\n    tag_152:\n        /* \"#utility.yul\":5519:5544   */\n      swap2\n      pop\n        /* \"#utility.yul\":5558:5578   */\n      tag_153\n        /* \"#utility.yul\":5576:5577   */\n      dup4\n        /* \"#utility.yul\":5558:5578   */\n      tag_67\n      jump\t// in\n    tag_153:\n        /* \"#utility.yul\":5553:5578   */\n      swap3\n      pop\n        /* \"#utility.yul\":5601:5602   */\n      dup3\n        /* \"#utility.yul\":5598:5599   */\n      dup3\n        /* \"#utility.yul\":5594:5603   */\n      add\n        /* \"#utility.yul\":5587:5603   */\n      swap1\n      pop\n        /* \"#utility.yul\":5622:5625   */\n      dup1\n        /* \"#utility.yul\":5619:5620   */\n      dup3\n        /* \"#utility.yul\":5616:5626   */\n      gt\n        /* \"#utility.yul\":5613:5649   */\n      iszero\n      tag_154\n      jumpi\n        /* \"#utility.yul\":5629:5647   */\n      tag_155\n      tag_86\n      jump\t// in\n    tag_155:\n        /* \"#utility.yul\":5613:5649   */\n    tag_154:\n        /* \"#utility.yul\":5465:5656   */\n      swap3\n      swap2\n      pop\n      pop\n      jump\t// out\n        /* \"#utility.yul\":5662:5899   */\n    tag_87:\n        /* \"#utility.yul\":5802:5836   */\n      0x4c652070726f6a657420657374207265757373692c20617563756e2072656d62\n        /* \"#utility.yul\":5798:5799   */\n      0x00\n        /* \"#utility.yul\":5790:5796   */\n      dup3\n        /* \"#utility.yul\":5786:5800   */\n      add\n        /* \"#utility.yul\":5779:5837   */\n      mstore\n        /* \"#utility.yul\":5871:5891   */\n      0x6f757273656d656e7420706f737369626c650000000000000000000000000000\n        /* \"#utility.yul\":5866:5868   */\n      0x20\n        /* \"#utility.yul\":5858:5864   */\n      dup3\n        /* \"#utility.yul\":5854:5869   */\n      add\n        /* \"#utility.yul\":5847:5892   */\n      mstore\n        /* \"#utility.yul\":5662:5899   */\n      pop\n      jump\t// out\n        /* \"#utility.yul\":5905:6271   */\n    tag_88:\n        /* \"#utility.yul\":6047:6050   */\n      0x00\n        /* \"#utility.yul\":6068:6135   */\n      tag_158\n        /* \"#utility.yul\":6132:6134   */\n      0x32\n        /* \"#utility.yul\":6127:6130   */\n      dup4\n        /* \"#utility.yul\":6068:6135   */\n      tag_81\n      jump\t// in\n    tag_158:\n        /* \"#utility.yul\":6061:6135   */\n      swap2\n      pop\n        /* \"#utility.yul\":6144:6237   */\n      tag_159\n        /* \"#utility.yul\":6233:6236   */\n      dup3\n        /* \"#utility.yul\":6144:6237   */\n      tag_87\n      jump\t// in\n    tag_159:\n        /* \"#utility.yul\":6262:6264   */\n      0x40\n        /* \"#utility.yul\":6257:6260   */\n      dup3\n        /* \"#utility.yul\":6253:6265   */\n      add\n        /* \"#utility.yul\":6246:6265   */\n      swap1\n      pop\n        /* \"#utility.yul\":5905:6271   */\n      swap2\n      swap1\n      pop\n      jump\t// out\n        /* \"#utility.yul\":6277:6696   */\n    tag_58:\n        /* \"#utility.yul\":6443:6447   */\n      0x00\n        /* \"#utility.yul\":6481:6483   */\n      0x20\n        /* \"#utility.yul\":6470:6479   */\n      dup3\n        /* \"#utility.yul\":6466:6484   */\n      add\n        /* \"#utility.yul\":6458:6484   */\n      swap1\n      pop\n        /* \"#utility.yul\":6530:6539   */\n      dup2\n        /* \"#utility.yul\":6524:6528   */\n      dup2\n        /* \"#utility.yul\":6520:6540   */\n      sub\n        /* \"#utility.yul\":6516:6517   */\n      0x00\n        /* \"#utility.yul\":6505:6514   */\n      dup4\n        /* \"#utility.yul\":6501:6518   */\n      add\n        /* \"#utility.yul\":6494:6541   */\n      mstore\n        /* \"#utility.yul\":6558:6689   */\n      tag_161\n        /* \"#utility.yul\":6684:6688   */\n      dup2\n        /* \"#utility.yul\":6558:6689   */\n      tag_88\n      jump\t// in\n    tag_161:\n        /* \"#utility.yul\":6550:6689   */\n      swap1\n      pop\n        /* \"#utility.yul\":6277:6696   */\n      swap2\n      swap1\n      pop\n      jump\t// out\n        /* \"#utility.yul\":6702:6875   */\n    tag_89:\n        /* \"#utility.yul\":6842:6867   */\n      0x417563756e20766f746520612072656d626f7572736572000000000000000000\n        /* \"#utility.yul\":6838:6839   */\n      0x00\n        /* \"#utility.yul\":6830:6836   */\n      dup3\n        /* \"#utility.yul\":6826:6840   */\n      add\n        /* \"#utility.yul\":6819:6868   */\n      mstore\n        /* \"#utility.yul\":6702:6875   */\n      pop\n      jump\t// out\n        /* \"#utility.yul\":6881:7247   */\n    tag_90:\n        /* \"#utility.yul\":7023:7026   */\n      0x00\n        /* \"#utility.yul\":7044:7111   */\n      tag_164\n        /* \"#utility.yul\":7108:7110   */\n      0x17\n        /* \"#utility.yul\":7103:7106   */\n      dup4\n        /* \"#utility.yul\":7044:7111   */\n      tag_81\n      jump\t// in\n    tag_164:\n        /* \"#utility.yul\":7037:7111   */\n      swap2\n      pop\n        /* \"#utility.yul\":7120:7213   */\n      tag_165\n        /* \"#utility.yul\":7209:7212   */\n      dup3\n        /* \"#utility.yul\":7120:7213   */\n      tag_89\n      jump\t// in\n    tag_165:\n        /* \"#utility.yul\":7238:7240   */\n      0x20\n        /* \"#utility.yul\":7233:7236   */\n      dup3\n        /* \"#utility.yul\":7229:7241   */\n      add\n        /* \"#utility.yul\":7222:7241   */\n      swap1\n      pop\n        /* \"#utility.yul\":6881:7247   */\n      swap2\n      swap1\n      pop\n      jump\t// out\n        /* \"#utility.yul\":7253:7672   */\n    tag_61:\n        /* \"#utility.yul\":7419:7423   */\n      0x00\n        /* \"#utility.yul\":7457:7459   */\n      0x20\n        /* \"#utility.yul\":7446:7455   */\n      dup3\n        /* \"#utility.yul\":7442:7460   */\n      add\n        /* \"#utility.yul\":7434:7460   */\n      swap1\n      pop\n        /* \"#utility.yul\":7506:7515   */\n      dup2\n        /* \"#utility.yul\":7500:7504   */\n      dup2\n        /* \"#utility.yul\":7496:7516   */\n      sub\n        /* \"#utility.yul\":7492:7493   */\n      0x00\n        /* \"#utility.yul\":7481:7490   */\n      dup4\n        /* \"#utility.yul\":7477:7494   */\n      add\n        /* \"#utility.yul\":7470:7517   */\n      mstore\n        /* \"#utility.yul\":7534:7665   */\n      tag_167\n        /* \"#utility.yul\":7660:7664   */\n      dup2\n        /* \"#utility.yul\":7534:7665   */\n      tag_90\n      jump\t// in\n    tag_167:\n        /* \"#utility.yul\":7526:7665   */\n      swap1\n      pop\n        /* \"#utility.yul\":7253:7672   */\n      swap2\n      swap1\n      pop\n      jump\t// out\n        /* \"#utility.yul\":7678:8010   */\n    tag_63:\n        /* \"#utility.yul\":7799:7803   */\n      0x00\n        /* \"#utility.yul\":7837:7839   */\n      0x40\n        /* \"#utility.yul\":7826:7835   */\n      dup3\n        /* \"#utility.yul\":7822:7840   */\n      add\n        /* \"#utility.yul\":7814:7840   */\n      swap1\n      pop\n        /* \"#utility.yul\":7850:7921   */\n      tag_169\n        /* \"#utility.yul\":7918:7919   */\n      0x00\n        /* \"#utility.yul\":7907:7916   */\n      dup4\n        /* \"#utility.yul\":7903:7920   */\n      add\n        /* \"#utility.yul\":7894:7900   */\n      dup6\n        /* \"#utility.yul\":7850:7921   */\n      tag_73\n      jump\t// in\n    tag_169:\n        /* \"#utility.yul\":7931:8003   */\n      tag_170\n        /* \"#utility.yul\":7999:8001   */\n      0x20\n        /* \"#utility.yul\":7988:7997   */\n      dup4\n        /* \"#utility.yul\":7984:8002   */\n      add\n        /* \"#utility.yul\":7975:7981   */\n      dup5\n        /* \"#utility.yul\":7931:8003   */\n      tag_68\n      jump\t// in\n    tag_170:\n        /* \"#utility.yul\":7678:8010   */\n      swap4\n      swap3\n      pop\n      pop\n      pop\n      jump\t// out\n\n    auxdata: 0xa2646970667358221220d6c1734f8c211285a7b76aa1399ee4c932f9c2ed3a55c9bee1753fa09775ee4864736f6c634300081a0033\n}\n",
				"bytecode": {
					"linkReferences": {},
					"object": "608060405234801561000f575f80fd5b50604051610b4f380380610b4f83398181016040528101906100319190610168565b335f806101000a81548173ffffffffffffffffffffffffffffffffffffffff021916908373ffffffffffffffffffffffffffffffffffffffff160217905550816002819055508060035f6101000a81548173ffffffffffffffffffffffffffffffffffffffff021916908373ffffffffffffffffffffffffffffffffffffffff1602179055505f60055f6101000a81548160ff02191690831515021790555050506101a6565b5f80fd5b5f819050919050565b6100ed816100db565b81146100f7575f80fd5b50565b5f81519050610108816100e4565b92915050565b5f73ffffffffffffffffffffffffffffffffffffffff82169050919050565b5f6101378261010e565b9050919050565b6101478161012d565b8114610151575f80fd5b50565b5f815190506101628161013e565b92915050565b5f806040838503121561017e5761017d6100d7565b5b5f61018b858286016100fa565b925050602061019c85828601610154565b9150509250929050565b61099c806101b35f395ff3fe608060405234801561000f575f80fd5b5060043610610086575f3560e01c8063d64cb35211610059578063d64cb35214610100578063d69099301461011e578063d8bff5a514610128578063fbda846a1461015857610086565b80630d15fd771461008a5780631b2655c9146100a8578063a0ce7b41146100c6578063ab8ed1ba146100e4575b5f80fd5b610092610176565b60405161009f919061056f565b60405180910390f35b6100b061017c565b6040516100bd91906105a2565b60405180910390f35b6100ce61018e565b6040516100db91906105fa565b60405180910390f35b6100fe60048036038101906100f99190610641565b6101b1565b005b610108610326565b604051610115919061056f565b60405180910390f35b61012661032c565b005b610142600480360381019061013d9190610696565b61051d565b60405161014f919061056f565b60405180910390f35b610160610532565b60405161016d91906105fa565b60405180910390f35b60015481565b60055f9054906101000a900460ff1681565b5f8054906101000a900473ffffffffffffffffffffffffffffffffffffffff1681565b5f81116101f3576040517f08c379a00000000000000000000000000000000000000000000000000000000081526004016101ea90610741565b60405180910390fd5b60035f9054906101000a900473ffffffffffffffffffffffffffffffffffffffff1673ffffffffffffffffffffffffffffffffffffffff166323b872dd3330846040518463ffffffff1660e01b81526004016102519392919061075f565b6020604051808303815f875af115801561026d573d5f803e3d5ffd5b505050506040513d601f19601f8201168201806040525081019061029191906107be565b508060045f3373ffffffffffffffffffffffffffffffffffffffff1673ffffffffffffffffffffffffffffffffffffffff1681526020019081526020015f205f8282546102de9190610816565b925050819055508060015f8282546102f69190610816565b925050819055506002546001541061032357600160055f6101000a81548160ff0219169083151502179055505b50565b60025481565b60055f9054906101000a900460ff161561037b576040517f08c379a0000000000000000000000000000000000000000000000000000000008152600401610372906108b9565b60405180910390fd5b5f60045f3373ffffffffffffffffffffffffffffffffffffffff1673ffffffffffffffffffffffffffffffffffffffff1681526020019081526020015f2054116103fa576040517f08c379a00000000000000000000000000000000000000000000000000000000081526004016103f190610921565b60405180910390fd5b5f60045f3373ffffffffffffffffffffffffffffffffffffffff1673ffffffffffffffffffffffffffffffffffffffff1681526020019081526020015f205490505f60045f3373ffffffffffffffffffffffffffffffffffffffff1673ffffffffffffffffffffffffffffffffffffffff1681526020019081526020015f208190555060035f9054906101000a900473ffffffffffffffffffffffffffffffffffffffff1673ffffffffffffffffffffffffffffffffffffffff1663a9059cbb33836040518363ffffffff1660e01b81526004016104d992919061093f565b6020604051808303815f875af11580156104f5573d5f803e3d5ffd5b505050506040513d601f19601f8201168201806040525081019061051991906107be565b5050565b6004602052805f5260405f205f915090505481565b60035f9054906101000a900473ffffffffffffffffffffffffffffffffffffffff1681565b5f819050919050565b61056981610557565b82525050565b5f6020820190506105825f830184610560565b92915050565b5f8115159050919050565b61059c81610588565b82525050565b5f6020820190506105b55f830184610593565b92915050565b5f73ffffffffffffffffffffffffffffffffffffffff82169050919050565b5f6105e4826105bb565b9050919050565b6105f4816105da565b82525050565b5f60208201905061060d5f8301846105eb565b92915050565b5f80fd5b61062081610557565b811461062a575f80fd5b50565b5f8135905061063b81610617565b92915050565b5f6020828403121561065657610655610613565b5b5f6106638482850161062d565b91505092915050565b610675816105da565b811461067f575f80fd5b50565b5f813590506106908161066c565b92915050565b5f602082840312156106ab576106aa610613565b5b5f6106b884828501610682565b91505092915050565b5f82825260208201905092915050565b7f566f757320646576657a20766f746572206176656320756e206d6f6e74616e745f8201527f20706f7369746966206465206d6f6e6e61696573000000000000000000000000602082015250565b5f61072b6034836106c1565b9150610736826106d1565b604082019050919050565b5f6020820190508181035f8301526107588161071f565b9050919050565b5f6060820190506107725f8301866105eb565b61077f60208301856105eb565b61078c6040830184610560565b949350505050565b61079d81610588565b81146107a7575f80fd5b50565b5f815190506107b881610794565b92915050565b5f602082840312156107d3576107d2610613565b5b5f6107e0848285016107aa565b91505092915050565b7f4e487b71000000000000000000000000000000000000000000000000000000005f52601160045260245ffd5b5f61082082610557565b915061082b83610557565b9250828201905080821115610843576108426107e9565b5b92915050565b7f4c652070726f6a657420657374207265757373692c20617563756e2072656d625f8201527f6f757273656d656e7420706f737369626c650000000000000000000000000000602082015250565b5f6108a36032836106c1565b91506108ae82610849565b604082019050919050565b5f6020820190508181035f8301526108d081610897565b9050919050565b7f417563756e20766f746520612072656d626f75727365720000000000000000005f82015250565b5f61090b6017836106c1565b9150610916826108d7565b602082019050919050565b5f6020820190508181035f830152610938816108ff565b9050919050565b5f6040820190506109525f8301856105eb565b61095f6020830184610560565b939250505056fea2646970667358221220d6c1734f8c211285a7b76aa1399ee4c932f9c2ed3a55c9bee1753fa09775ee4864736f6c634300081a0033",
					"opcodes": "PUSH1 0x80 PUSH1 0x40 MSTORE CALLVALUE DUP1 ISZERO PUSH2 0xF JUMPI PUSH0 DUP1 REVERT JUMPDEST POP PUSH1 0x40 MLOAD PUSH2 0xB4F CODESIZE SUB DUP1 PUSH2 0xB4F DUP4 CODECOPY DUP2 DUP2 ADD PUSH1 0x40 MSTORE DUP2 ADD SWAP1 PUSH2 0x31 SWAP2 SWAP1 PUSH2 0x168 JUMP JUMPDEST CALLER PUSH0 DUP1 PUSH2 0x100 EXP DUP2 SLOAD DUP2 PUSH20 0xFFFFFFFFFFFFFFFFFFFFFFFFFFFFFFFFFFFFFFFF MUL NOT AND SWAP1 DUP4 PUSH20 0xFFFFFFFFFFFFFFFFFFFFFFFFFFFFFFFFFFFFFFFF AND MUL OR SWAP1 SSTORE POP DUP2 PUSH1 0x2 DUP2 SWAP1 SSTORE POP DUP1 PUSH1 0x3 PUSH0 PUSH2 0x100 EXP DUP2 SLOAD DUP2 PUSH20 0xFFFFFFFFFFFFFFFFFFFFFFFFFFFFFFFFFFFFFFFF MUL NOT AND SWAP1 DUP4 PUSH20 0xFFFFFFFFFFFFFFFFFFFFFFFFFFFFFFFFFFFFFFFF AND MUL OR SWAP1 SSTORE POP PUSH0 PUSH1 0x5 PUSH0 PUSH2 0x100 EXP DUP2 SLOAD DUP2 PUSH1 0xFF MUL NOT AND SWAP1 DUP4 ISZERO ISZERO MUL OR SWAP1 SSTORE POP POP POP PUSH2 0x1A6 JUMP JUMPDEST PUSH0 DUP1 REVERT JUMPDEST PUSH0 DUP2 SWAP1 POP SWAP2 SWAP1 POP JUMP JUMPDEST PUSH2 0xED DUP2 PUSH2 0xDB JUMP JUMPDEST DUP2 EQ PUSH2 0xF7 JUMPI PUSH0 DUP1 REVERT JUMPDEST POP JUMP JUMPDEST PUSH0 DUP2 MLOAD SWAP1 POP PUSH2 0x108 DUP2 PUSH2 0xE4 JUMP JUMPDEST SWAP3 SWAP2 POP POP JUMP JUMPDEST PUSH0 PUSH20 0xFFFFFFFFFFFFFFFFFFFFFFFFFFFFFFFFFFFFFFFF DUP3 AND SWAP1 POP SWAP2 SWAP1 POP JUMP JUMPDEST PUSH0 PUSH2 0x137 DUP3 PUSH2 0x10E JUMP JUMPDEST SWAP1 POP SWAP2 SWAP1 POP JUMP JUMPDEST PUSH2 0x147 DUP2 PUSH2 0x12D JUMP JUMPDEST DUP2 EQ PUSH2 0x151 JUMPI PUSH0 DUP1 REVERT JUMPDEST POP JUMP JUMPDEST PUSH0 DUP2 MLOAD SWAP1 POP PUSH2 0x162 DUP2 PUSH2 0x13E JUMP JUMPDEST SWAP3 SWAP2 POP POP JUMP JUMPDEST PUSH0 DUP1 PUSH1 0x40 DUP4 DUP6 SUB SLT ISZERO PUSH2 0x17E JUMPI PUSH2 0x17D PUSH2 0xD7 JUMP JUMPDEST JUMPDEST PUSH0 PUSH2 0x18B DUP6 DUP3 DUP7 ADD PUSH2 0xFA JUMP JUMPDEST SWAP3 POP POP PUSH1 0x20 PUSH2 0x19C DUP6 DUP3 DUP7 ADD PUSH2 0x154 JUMP JUMPDEST SWAP2 POP POP SWAP3 POP SWAP3 SWAP1 POP JUMP JUMPDEST PUSH2 0x99C DUP1 PUSH2 0x1B3 PUSH0 CODECOPY PUSH0 RETURN INVALID PUSH1 0x80 PUSH1 0x40 MSTORE CALLVALUE DUP1 ISZERO PUSH2 0xF JUMPI PUSH0 DUP1 REVERT JUMPDEST POP PUSH1 0x4 CALLDATASIZE LT PUSH2 0x86 JUMPI PUSH0 CALLDATALOAD PUSH1 0xE0 SHR DUP1 PUSH4 0xD64CB352 GT PUSH2 0x59 JUMPI DUP1 PUSH4 0xD64CB352 EQ PUSH2 0x100 JUMPI DUP1 PUSH4 0xD6909930 EQ PUSH2 0x11E JUMPI DUP1 PUSH4 0xD8BFF5A5 EQ PUSH2 0x128 JUMPI DUP1 PUSH4 0xFBDA846A EQ PUSH2 0x158 JUMPI PUSH2 0x86 JUMP JUMPDEST DUP1 PUSH4 0xD15FD77 EQ PUSH2 0x8A JUMPI DUP1 PUSH4 0x1B2655C9 EQ PUSH2 0xA8 JUMPI DUP1 PUSH4 0xA0CE7B41 EQ PUSH2 0xC6 JUMPI DUP1 PUSH4 0xAB8ED1BA EQ PUSH2 0xE4 JUMPI JUMPDEST PUSH0 DUP1 REVERT JUMPDEST PUSH2 0x92 PUSH2 0x176 JUMP JUMPDEST PUSH1 0x40 MLOAD PUSH2 0x9F SWAP2 SWAP1 PUSH2 0x56F JUMP JUMPDEST PUSH1 0x40 MLOAD DUP1 SWAP2 SUB SWAP1 RETURN JUMPDEST PUSH2 0xB0 PUSH2 0x17C JUMP JUMPDEST PUSH1 0x40 MLOAD PUSH2 0xBD SWAP2 SWAP1 PUSH2 0x5A2 JUMP JUMPDEST PUSH1 0x40 MLOAD DUP1 SWAP2 SUB SWAP1 RETURN JUMPDEST PUSH2 0xCE PUSH2 0x18E JUMP JUMPDEST PUSH1 0x40 MLOAD PUSH2 0xDB SWAP2 SWAP1 PUSH2 0x5FA JUMP JUMPDEST PUSH1 0x40 MLOAD DUP1 SWAP2 SUB SWAP1 RETURN JUMPDEST PUSH2 0xFE PUSH1 0x4 DUP1 CALLDATASIZE SUB DUP2 ADD SWAP1 PUSH2 0xF9 SWAP2 SWAP1 PUSH2 0x641 JUMP JUMPDEST PUSH2 0x1B1 JUMP JUMPDEST STOP JUMPDEST PUSH2 0x108 PUSH2 0x326 JUMP JUMPDEST PUSH1 0x40 MLOAD PUSH2 0x115 SWAP2 SWAP1 PUSH2 0x56F JUMP JUMPDEST PUSH1 0x40 MLOAD DUP1 SWAP2 SUB SWAP1 RETURN JUMPDEST PUSH2 0x126 PUSH2 0x32C JUMP JUMPDEST STOP JUMPDEST PUSH2 0x142 PUSH1 0x4 DUP1 CALLDATASIZE SUB DUP2 ADD SWAP1 PUSH2 0x13D SWAP2 SWAP1 PUSH2 0x696 JUMP JUMPDEST PUSH2 0x51D JUMP JUMPDEST PUSH1 0x40 MLOAD PUSH2 0x14F SWAP2 SWAP1 PUSH2 0x56F JUMP JUMPDEST PUSH1 0x40 MLOAD DUP1 SWAP2 SUB SWAP1 RETURN JUMPDEST PUSH2 0x160 PUSH2 0x532 JUMP JUMPDEST PUSH1 0x40 MLOAD PUSH2 0x16D SWAP2 SWAP1 PUSH2 0x5FA JUMP JUMPDEST PUSH1 0x40 MLOAD DUP1 SWAP2 SUB SWAP1 RETURN JUMPDEST PUSH1 0x1 SLOAD DUP2 JUMP JUMPDEST PUSH1 0x5 PUSH0 SWAP1 SLOAD SWAP1 PUSH2 0x100 EXP SWAP1 DIV PUSH1 0xFF AND DUP2 JUMP JUMPDEST PUSH0 DUP1 SLOAD SWAP1 PUSH2 0x100 EXP SWAP1 DIV PUSH20 0xFFFFFFFFFFFFFFFFFFFFFFFFFFFFFFFFFFFFFFFF AND DUP2 JUMP JUMPDEST PUSH0 DUP2 GT PUSH2 0x1F3 JUMPI PUSH1 0x40 MLOAD PUSH32 0x8C379A000000000000000000000000000000000000000000000000000000000 DUP2 MSTORE PUSH1 0x4 ADD PUSH2 0x1EA SWAP1 PUSH2 0x741 JUMP JUMPDEST PUSH1 0x40 MLOAD DUP1 SWAP2 SUB SWAP1 REVERT JUMPDEST PUSH1 0x3 PUSH0 SWAP1 SLOAD SWAP1 PUSH2 0x100 EXP SWAP1 DIV PUSH20 0xFFFFFFFFFFFFFFFFFFFFFFFFFFFFFFFFFFFFFFFF AND PUSH20 0xFFFFFFFFFFFFFFFFFFFFFFFFFFFFFFFFFFFFFFFF AND PUSH4 0x23B872DD CALLER ADDRESS DUP5 PUSH1 0x40 MLOAD DUP5 PUSH4 0xFFFFFFFF AND PUSH1 0xE0 SHL DUP2 MSTORE PUSH1 0x4 ADD PUSH2 0x251 SWAP4 SWAP3 SWAP2 SWAP1 PUSH2 0x75F JUMP JUMPDEST PUSH1 0x20 PUSH1 0x40 MLOAD DUP1 DUP4 SUB DUP2 PUSH0 DUP8 GAS CALL ISZERO DUP1 ISZERO PUSH2 0x26D JUMPI RETURNDATASIZE PUSH0 DUP1 RETURNDATACOPY RETURNDATASIZE PUSH0 REVERT JUMPDEST POP POP POP POP PUSH1 0x40 MLOAD RETURNDATASIZE PUSH1 0x1F NOT PUSH1 0x1F DUP3 ADD AND DUP3 ADD DUP1 PUSH1 0x40 MSTORE POP DUP2 ADD SWAP1 PUSH2 0x291 SWAP2 SWAP1 PUSH2 0x7BE JUMP JUMPDEST POP DUP1 PUSH1 0x4 PUSH0 CALLER PUSH20 0xFFFFFFFFFFFFFFFFFFFFFFFFFFFFFFFFFFFFFFFF AND PUSH20 0xFFFFFFFFFFFFFFFFFFFFFFFFFFFFFFFFFFFFFFFF AND DUP2 MSTORE PUSH1 0x20 ADD SWAP1 DUP2 MSTORE PUSH1 0x20 ADD PUSH0 KECCAK256 PUSH0 DUP3 DUP3 SLOAD PUSH2 0x2DE SWAP2 SWAP1 PUSH2 0x816 JUMP JUMPDEST SWAP3 POP POP DUP2 SWAP1 SSTORE POP DUP1 PUSH1 0x1 PUSH0 DUP3 DUP3 SLOAD PUSH2 0x2F6 SWAP2 SWAP1 PUSH2 0x816 JUMP JUMPDEST SWAP3 POP POP DUP2 SWAP1 SSTORE POP PUSH1 0x2 SLOAD PUSH1 0x1 SLOAD LT PUSH2 0x323 JUMPI PUSH1 0x1 PUSH1 0x5 PUSH0 PUSH2 0x100 EXP DUP2 SLOAD DUP2 PUSH1 0xFF MUL NOT AND SWAP1 DUP4 ISZERO ISZERO MUL OR SWAP1 SSTORE POP JUMPDEST POP JUMP JUMPDEST PUSH1 0x2 SLOAD DUP2 JUMP JUMPDEST PUSH1 0x5 PUSH0 SWAP1 SLOAD SWAP1 PUSH2 0x100 EXP SWAP1 DIV PUSH1 0xFF AND ISZERO PUSH2 0x37B JUMPI PUSH1 0x40 MLOAD PUSH32 0x8C379A000000000000000000000000000000000000000000000000000000000 DUP2 MSTORE PUSH1 0x4 ADD PUSH2 0x372 SWAP1 PUSH2 0x8B9 JUMP JUMPDEST PUSH1 0x40 MLOAD DUP1 SWAP2 SUB SWAP1 REVERT JUMPDEST PUSH0 PUSH1 0x4 PUSH0 CALLER PUSH20 0xFFFFFFFFFFFFFFFFFFFFFFFFFFFFFFFFFFFFFFFF AND PUSH20 0xFFFFFFFFFFFFFFFFFFFFFFFFFFFFFFFFFFFFFFFF AND DUP2 MSTORE PUSH1 0x20 ADD SWAP1 DUP2 MSTORE PUSH1 0x20 ADD PUSH0 KECCAK256 SLOAD GT PUSH2 0x3FA JUMPI PUSH1 0x40 MLOAD PUSH32 0x8C379A000000000000000000000000000000000000000000000000000000000 DUP2 MSTORE PUSH1 0x4 ADD PUSH2 0x3F1 SWAP1 PUSH2 0x921 JUMP JUMPDEST PUSH1 0x40 MLOAD DUP1 SWAP2 SUB SWAP1 REVERT JUMPDEST PUSH0 PUSH1 0x4 PUSH0 CALLER PUSH20 0xFFFFFFFFFFFFFFFFFFFFFFFFFFFFFFFFFFFFFFFF AND PUSH20 0xFFFFFFFFFFFFFFFFFFFFFFFFFFFFFFFFFFFFFFFF AND DUP2 MSTORE PUSH1 0x20 ADD SWAP1 DUP2 MSTORE PUSH1 0x20 ADD PUSH0 KECCAK256 SLOAD SWAP1 POP PUSH0 PUSH1 0x4 PUSH0 CALLER PUSH20 0xFFFFFFFFFFFFFFFFFFFFFFFFFFFFFFFFFFFFFFFF AND PUSH20 0xFFFFFFFFFFFFFFFFFFFFFFFFFFFFFFFFFFFFFFFF AND DUP2 MSTORE PUSH1 0x20 ADD SWAP1 DUP2 MSTORE PUSH1 0x20 ADD PUSH0 KECCAK256 DUP2 SWAP1 SSTORE POP PUSH1 0x3 PUSH0 SWAP1 SLOAD SWAP1 PUSH2 0x100 EXP SWAP1 DIV PUSH20 0xFFFFFFFFFFFFFFFFFFFFFFFFFFFFFFFFFFFFFFFF AND PUSH20 0xFFFFFFFFFFFFFFFFFFFFFFFFFFFFFFFFFFFFFFFF AND PUSH4 0xA9059CBB CALLER DUP4 PUSH1 0x40 MLOAD DUP4 PUSH4 0xFFFFFFFF AND PUSH1 0xE0 SHL DUP2 MSTORE PUSH1 0x4 ADD PUSH2 0x4D9 SWAP3 SWAP2 SWAP1 PUSH2 0x93F JUMP JUMPDEST PUSH1 0x20 PUSH1 0x40 MLOAD DUP1 DUP4 SUB DUP2 PUSH0 DUP8 GAS CALL ISZERO DUP1 ISZERO PUSH2 0x4F5 JUMPI RETURNDATASIZE PUSH0 DUP1 RETURNDATACOPY RETURNDATASIZE PUSH0 REVERT JUMPDEST POP POP POP POP PUSH1 0x40 MLOAD RETURNDATASIZE PUSH1 0x1F NOT PUSH1 0x1F DUP3 ADD AND DUP3 ADD DUP1 PUSH1 0x40 MSTORE POP DUP2 ADD SWAP1 PUSH2 0x519 SWAP2 SWAP1 PUSH2 0x7BE JUMP JUMPDEST POP POP JUMP JUMPDEST PUSH1 0x4 PUSH1 0x20 MSTORE DUP1 PUSH0 MSTORE PUSH1 0x40 PUSH0 KECCAK256 PUSH0 SWAP2 POP SWAP1 POP SLOAD DUP2 JUMP JUMPDEST PUSH1 0x3 PUSH0 SWAP1 SLOAD SWAP1 PUSH2 0x100 EXP SWAP1 DIV PUSH20 0xFFFFFFFFFFFFFFFFFFFFFFFFFFFFFFFFFFFFFFFF AND DUP2 JUMP JUMPDEST PUSH0 DUP2 SWAP1 POP SWAP2 SWAP1 POP JUMP JUMPDEST PUSH2 0x569 DUP2 PUSH2 0x557 JUMP JUMPDEST DUP3 MSTORE POP POP JUMP JUMPDEST PUSH0 PUSH1 0x20 DUP3 ADD SWAP1 POP PUSH2 0x582 PUSH0 DUP4 ADD DUP5 PUSH2 0x560 JUMP JUMPDEST SWAP3 SWAP2 POP POP JUMP JUMPDEST PUSH0 DUP2 ISZERO ISZERO SWAP1 POP SWAP2 SWAP1 POP JUMP JUMPDEST PUSH2 0x59C DUP2 PUSH2 0x588 JUMP JUMPDEST DUP3 MSTORE POP POP JUMP JUMPDEST PUSH0 PUSH1 0x20 DUP3 ADD SWAP1 POP PUSH2 0x5B5 PUSH0 DUP4 ADD DUP5 PUSH2 0x593 JUMP JUMPDEST SWAP3 SWAP2 POP POP JUMP JUMPDEST PUSH0 PUSH20 0xFFFFFFFFFFFFFFFFFFFFFFFFFFFFFFFFFFFFFFFF DUP3 AND SWAP1 POP SWAP2 SWAP1 POP JUMP JUMPDEST PUSH0 PUSH2 0x5E4 DUP3 PUSH2 0x5BB JUMP JUMPDEST SWAP1 POP SWAP2 SWAP1 POP JUMP JUMPDEST PUSH2 0x5F4 DUP2 PUSH2 0x5DA JUMP JUMPDEST DUP3 MSTORE POP POP JUMP JUMPDEST PUSH0 PUSH1 0x20 DUP3 ADD SWAP1 POP PUSH2 0x60D PUSH0 DUP4 ADD DUP5 PUSH2 0x5EB JUMP JUMPDEST SWAP3 SWAP2 POP POP JUMP JUMPDEST PUSH0 DUP1 REVERT JUMPDEST PUSH2 0x620 DUP2 PUSH2 0x557 JUMP JUMPDEST DUP2 EQ PUSH2 0x62A JUMPI PUSH0 DUP1 REVERT JUMPDEST POP JUMP JUMPDEST PUSH0 DUP2 CALLDATALOAD SWAP1 POP PUSH2 0x63B DUP2 PUSH2 0x617 JUMP JUMPDEST SWAP3 SWAP2 POP POP JUMP JUMPDEST PUSH0 PUSH1 0x20 DUP3 DUP5 SUB SLT ISZERO PUSH2 0x656 JUMPI PUSH2 0x655 PUSH2 0x613 JUMP JUMPDEST JUMPDEST PUSH0 PUSH2 0x663 DUP5 DUP3 DUP6 ADD PUSH2 0x62D JUMP JUMPDEST SWAP2 POP POP SWAP3 SWAP2 POP POP JUMP JUMPDEST PUSH2 0x675 DUP2 PUSH2 0x5DA JUMP JUMPDEST DUP2 EQ PUSH2 0x67F JUMPI PUSH0 DUP1 REVERT JUMPDEST POP JUMP JUMPDEST PUSH0 DUP2 CALLDATALOAD SWAP1 POP PUSH2 0x690 DUP2 PUSH2 0x66C JUMP JUMPDEST SWAP3 SWAP2 POP POP JUMP JUMPDEST PUSH0 PUSH1 0x20 DUP3 DUP5 SUB SLT ISZERO PUSH2 0x6AB JUMPI PUSH2 0x6AA PUSH2 0x613 JUMP JUMPDEST JUMPDEST PUSH0 PUSH2 0x6B8 DUP5 DUP3 DUP6 ADD PUSH2 0x682 JUMP JUMPDEST SWAP2 POP POP SWAP3 SWAP2 POP POP JUMP JUMPDEST PUSH0 DUP3 DUP3 MSTORE PUSH1 0x20 DUP3 ADD SWAP1 POP SWAP3 SWAP2 POP POP JUMP JUMPDEST PUSH32 0x566F757320646576657A20766F746572206176656320756E206D6F6E74616E74 PUSH0 DUP3 ADD MSTORE PUSH32 0x20706F7369746966206465206D6F6E6E61696573000000000000000000000000 PUSH1 0x20 DUP3 ADD MSTORE POP JUMP JUMPDEST PUSH0 PUSH2 0x72B PUSH1 0x34 DUP4 PUSH2 0x6C1 JUMP JUMPDEST SWAP2 POP PUSH2 0x736 DUP3 PUSH2 0x6D1 JUMP JUMPDEST PUSH1 0x40 DUP3 ADD SWAP1 POP SWAP2 SWAP1 POP JUMP JUMPDEST PUSH0 PUSH1 0x20 DUP3 ADD SWAP1 POP DUP2 DUP2 SUB PUSH0 DUP4 ADD MSTORE PUSH2 0x758 DUP2 PUSH2 0x71F JUMP JUMPDEST SWAP1 POP SWAP2 SWAP1 POP JUMP JUMPDEST PUSH0 PUSH1 0x60 DUP3 ADD SWAP1 POP PUSH2 0x772 PUSH0 DUP4 ADD DUP7 PUSH2 0x5EB JUMP JUMPDEST PUSH2 0x77F PUSH1 0x20 DUP4 ADD DUP6 PUSH2 0x5EB JUMP JUMPDEST PUSH2 0x78C PUSH1 0x40 DUP4 ADD DUP5 PUSH2 0x560 JUMP JUMPDEST SWAP5 SWAP4 POP POP POP POP JUMP JUMPDEST PUSH2 0x79D DUP2 PUSH2 0x588 JUMP JUMPDEST DUP2 EQ PUSH2 0x7A7 JUMPI PUSH0 DUP1 REVERT JUMPDEST POP JUMP JUMPDEST PUSH0 DUP2 MLOAD SWAP1 POP PUSH2 0x7B8 DUP2 PUSH2 0x794 JUMP JUMPDEST SWAP3 SWAP2 POP POP JUMP JUMPDEST PUSH0 PUSH1 0x20 DUP3 DUP5 SUB SLT ISZERO PUSH2 0x7D3 JUMPI PUSH2 0x7D2 PUSH2 0x613 JUMP JUMPDEST JUMPDEST PUSH0 PUSH2 0x7E0 DUP5 DUP3 DUP6 ADD PUSH2 0x7AA JUMP JUMPDEST SWAP2 POP POP SWAP3 SWAP2 POP POP JUMP JUMPDEST PUSH32 0x4E487B7100000000000000000000000000000000000000000000000000000000 PUSH0 MSTORE PUSH1 0x11 PUSH1 0x4 MSTORE PUSH1 0x24 PUSH0 REVERT JUMPDEST PUSH0 PUSH2 0x820 DUP3 PUSH2 0x557 JUMP JUMPDEST SWAP2 POP PUSH2 0x82B DUP4 PUSH2 0x557 JUMP JUMPDEST SWAP3 POP DUP3 DUP3 ADD SWAP1 POP DUP1 DUP3 GT ISZERO PUSH2 0x843 JUMPI PUSH2 0x842 PUSH2 0x7E9 JUMP JUMPDEST JUMPDEST SWAP3 SWAP2 POP POP JUMP JUMPDEST PUSH32 0x4C652070726F6A657420657374207265757373692C20617563756E2072656D62 PUSH0 DUP3 ADD MSTORE PUSH32 0x6F757273656D656E7420706F737369626C650000000000000000000000000000 PUSH1 0x20 DUP3 ADD MSTORE POP JUMP JUMPDEST PUSH0 PUSH2 0x8A3 PUSH1 0x32 DUP4 PUSH2 0x6C1 JUMP JUMPDEST SWAP2 POP PUSH2 0x8AE DUP3 PUSH2 0x849 JUMP JUMPDEST PUSH1 0x40 DUP3 ADD SWAP1 POP SWAP2 SWAP1 POP JUMP JUMPDEST PUSH0 PUSH1 0x20 DUP3 ADD SWAP1 POP DUP2 DUP2 SUB PUSH0 DUP4 ADD MSTORE PUSH2 0x8D0 DUP2 PUSH2 0x897 JUMP JUMPDEST SWAP1 POP SWAP2 SWAP1 POP JUMP JUMPDEST PUSH32 0x417563756E20766F746520612072656D626F7572736572000000000000000000 PUSH0 DUP3 ADD MSTORE POP JUMP JUMPDEST PUSH0 PUSH2 0x90B PUSH1 0x17 DUP4 PUSH2 0x6C1 JUMP JUMPDEST SWAP2 POP PUSH2 0x916 DUP3 PUSH2 0x8D7 JUMP JUMPDEST PUSH1 0x20 DUP3 ADD SWAP1 POP SWAP2 SWAP1 POP JUMP JUMPDEST PUSH0 PUSH1 0x20 DUP3 ADD SWAP1 POP DUP2 DUP2 SUB PUSH0 DUP4 ADD MSTORE PUSH2 0x938 DUP2 PUSH2 0x8FF JUMP JUMPDEST SWAP1 POP SWAP2 SWAP1 POP JUMP JUMPDEST PUSH0 PUSH1 0x40 DUP3 ADD SWAP1 POP PUSH2 0x952 PUSH0 DUP4 ADD DUP6 PUSH2 0x5EB JUMP JUMPDEST PUSH2 0x95F PUSH1 0x20 DUP4 ADD DUP5 PUSH2 0x560 JUMP JUMPDEST SWAP4 SWAP3 POP POP POP JUMP INVALID LOG2 PUSH5 0x6970667358 0x22 SLT KECCAK256 0xD6 0xC1 PUSH20 0x4F8C211285A7B76AA1399EE4C932F9C2ED3A55C9 0xBE 0xE1 PUSH22 0x3FA09775EE4864736F6C634300081A00330000000000 "
				},
				"gasEstimates": {
					"creation": {
						"codeDepositCost": "492000",
						"executionCost": "infinite",
						"totalCost": "infinite"
					},
					"external": {
						"administrateur()": "2550",
						"adresseMonnaie()": "2574",
						"projetReussi()": "2489",
						"remboursement()": "infinite",
						"totalVotes()": "2426",
						"voter(uint256)": "infinite",
						"votes(address)": "2846",
						"votesRequis()": "2425"
					}
				},
				"methodIdentifiers": {
					"administrateur()": "a0ce7b41",
					"adresseMonnaie()": "fbda846a",
					"projetReussi()": "1b2655c9",
					"remboursement()": "d6909930",
					"totalVotes()": "0d15fd77",
					"voter(uint256)": "ab8ed1ba",
					"votes(address)": "d8bff5a5",
					"votesRequis()": "d64cb352"
				}
			},
			"storageLayout": {
				"storage": [
					{
						"astId": 24,
						"contract": "contracts/VotingContracts.sol:ContratDeVote",
						"label": "administrateur",
						"offset": 0,
						"slot": "0",
						"type": "t_address"
					},
					{
						"astId": 26,
						"contract": "contracts/VotingContracts.sol:ContratDeVote",
						"label": "totalVotes",
						"offset": 0,
						"slot": "1",
						"type": "t_uint256"
					},
					{
						"astId": 28,
						"contract": "contracts/VotingContracts.sol:ContratDeVote",
						"label": "votesRequis",
						"offset": 0,
						"slot": "2",
						"type": "t_uint256"
					},
					{
						"astId": 30,
						"contract": "contracts/VotingContracts.sol:ContratDeVote",
						"label": "adresseMonnaie",
						"offset": 0,
						"slot": "3",
						"type": "t_address"
					},
					{
						"astId": 34,
						"contract": "contracts/VotingContracts.sol:ContratDeVote",
						"label": "votes",
						"offset": 0,
						"slot": "4",
						"type": "t_mapping(t_address,t_uint256)"
					},
					{
						"astId": 36,
						"contract": "contracts/VotingContracts.sol:ContratDeVote",
						"label": "projetReussi",
						"offset": 0,
						"slot": "5",
						"type": "t_bool"
					}
				],
				"types": {
					"t_address": {
						"encoding": "inplace",
						"label": "address",
						"numberOfBytes": "20"
					},
					"t_bool": {
						"encoding": "inplace",
						"label": "bool",
						"numberOfBytes": "1"
					},
					"t_mapping(t_address,t_uint256)": {
						"encoding": "mapping",
						"key": "t_address",
						"label": "mapping(address => uint256)",
						"numberOfBytes": "32",
						"value": "t_uint256"
					},
					"t_uint256": {
						"encoding": "inplace",
						"label": "uint256",
						"numberOfBytes": "32"
					}
				}
			},
			"userdoc": {
				"kind": "user",
				"methods": {},
				"version": 1
			}
		}
	}
}